:020000040800F2
:10000000980800201D03000867470008F144000815
:10001000654700087D2D00085750000800000000CB
:100020000000000000000000000000009B4B0008E2
:100030007F2D000800000000694700089D4B000864
:1000400037030008370300083703000837030008A8
:100050003703000815480008370300083703000875
:100060003703000837030008370300083703000888
:100070003703000837030008370300083703000878
:100080003703000837030008370300083703000868
:100090003703000837030008370300083703000858
:1000A0003703000837030008370300083703000848
:1000B0003703000837030008370300083703000838
:1000C0003703000837030008370300083703000828
:1000D0003703000837030008370300083703000818
:1000E0003703000837030008370300083703000808
:1000F00037030008370300083703000837030008F8
:1001000037030008370300083703000837030008E7
:1001100037030008370300083703000837030008D7
:1001200037030008370300083703000837030008C7
:1001300037030008370300083703000837030008B7
:1001400037030008370300083703000837030008A7
:100150003703000837030008370300083703000897
:100160003703000837030008370300083703000887
:100170003703000837030008370300083703000877
:100180003703000837030008370300083703000867
:100190003703000837030008370300083703000857
:1001A0003703000837030008370300083703000847
:1001B0003703000837030008370300083703000837
:1001C000370300083703000800F002F800F096F843
:1001D0000AA090E8000C82448344AAF10107DA45A2
:1001E00001D100F08BF8AFF2090EBAE80F0013F05E
:1001F000010F18BFFB1A43F0010318477C500000A1
:100200009C500000103A24BF78C878C1FAD8520731
:1002100024BF30C830C144BF04680C607047000080
:100220000023002400250026103A28BF78C1FBD8FF
:10023000520728BF30C148BF0B6070476E2900F0DD
:10024000EF82702900F03184662904F086876529E1
:1002500004F08387672904F08087612904F07F8791
:1002600003681B0A28BF41F08001692900F09C82C5
:10027000642900F09982752900F096826F2900F0B8
:10028000BE83782900F0FD83E92900F05983E42931
:1002900000F05683F52900F05383EF2900F0BB836B
:1002A000F82900F0FC830368DB0928BF41F08001D6
:1002B000632901F04F81732901F05481E32901F092
:1002C0005F81F32901F06481002070471FB504F0BD
:1002D0003FFF9DE8030000F0CFF901F0B3F90400FF
:1002E0000020002104F01EFF401C6060002000215F
:1002F00004F002FFE0601FBD10B510BD01F074F9FD
:100300001146FFF7E3FF04F0D7FE01F051FA03B402
:10031000FFF7F2FF03BC01F081FA000009488047B3
:1003200009480047FEE7FEE7FEE7FEE7FEE7FEE7D7
:10033000FEE7FEE7FEE7FEE704480549054A064BEF
:1003400070470000414C0008C901000898020020D5
:1003500098080020980400209804002070B50646F4
:1003600000F06EF9056806F10B0020F00704B442B6
:100370009CBF002070BD2B466A68BAB11068A042CD
:1003800010D304F1080188423CBF5068586007D37D
:100390005168101941601168091B016058601460B0
:1003A000101D70BD13465268002AE7D12146284629
:1003B00000F04EF90028DED170BD70B50446051F6F
:1003C00000F03EF90068002C14BF446870BD002C9A
:1003D00018BFAC423CBF20466468F8D301680A18D5
:1003E000AA4218BF456003D12A680546114401603E
:1003F00028684119A1421CBF6C6070BD61686960CA
:1004000021680844286070BD53EA020C00F069803E
:100410002DE9F04B4FF00006002B1FBFB3FA83F518
:1004200003FA05F424FA05F65E4012BF1643B2FA49
:1004300082F502FA05F4C5F120051EBF22FA05FC7B
:1004400044EA0C04203556EA044C4FEA144418BF21
:10045000641C4FF000084FF00009904271EB030C50
:1004600039D3002919BFB1FA81F701FA07F6B0FABA
:1004700080F700FA07F6C7F120071EBF20FA07FC35
:1004800046EA0C062037B6FBF4FCA7EB0507103F45
:1004900007F01F0BCBF120060CFA0BFB2CFA06F62B
:1004A00044BFB3460026202FA4BF5E464FF0000B8A
:1004B0005BEA060C08BF4FF0010B19EB0B09ABFB15
:1004C000027C48EB0608C01B06FB02CC0BFB03CCEE
:1004D00071EB0C01C1E70B46024641464846BDE8B8
:1004E000F08B13B54FF000004FF00001AFF3008028
:1004F000BDE81C40704700001CB50C46064B7B4411
:1005000069460090204600F0A4F9044600206946A0
:1005100000F0B2F920461CBD77030000032A40F228
:10052000308010F0030C00F0158011F8013BBCF195
:10053000020F624498BF11F801CB00F8013B38BFAD
:1005400011F8013BA2F1040298BF00F801CB38BFBB
:1005500000F8013B11F0030300F07683083AC0F085
:10056000088051F8043B083A51F804CBA0E8081081
:10057000F5E7121D5CBF51F8043B40F8043BAFF3B4
:100580000080D20724BF11F8013B11F801CB48BF0E
:1005900011F8012B24BF00F8013B00F801CB48BF44
:1005A00000F8012B70474FF000020429C0F01280C0
:1005B00010F0030C00F01B80CCF1040CBCF1020F16
:1005C00018BF00F8012BA8BF20F8022BA1EB0C01EB
:1005D00000F00DB85FEAC17C24BF00F8012B00F8E1
:1005E000012B48BF00F8012B70474FF0000200B507
:1005F000134694469646203922BFA0E80C50A0E846
:100600000C50B1F12001BFF4F7AF090728BFA0E8F3
:100610000C5048BF0CC05DF804EB890028BF40F8BF
:10062000042B08BF704748BF20F8022B11F0804F01
:1006300018BF00F8012B70477047704770470000E3
:10064000004870474002002070477047704770476D
:1006500038B504460A4600206946AFF300800028FA
:1006600008BF38BD02460099204600F023FB012058
:1006700038BD012000F0B0BFF8B5AFF300800546EB
:1006800000200C46102000BF0646A819A0420DD934
:10069000324669460020AFF30080070008BF00F033
:1006A0009BFF0098A04218BF0546C419FFF7C8FF7A
:1006B00005600746F01D20F007004619284600F0A7
:1006C0000AF8B44208BFF8BDA21B31463868BDE83D
:1006D000F84000F0EFBA00210160C0E90110704756
:1006E0001020704770B5044685690068C10601D5C1
:1006F000302600E02026C00707D070BDD4E90121D4
:1007000030469047206A401C20626D1EF6D570BDB1
:1007100070B5044685690078C00707D170BDD4E97B
:10072000012120209047206A401C20626D1EF6D5D2
:1007300070BD09684A0501D540B27047C905FCD5AE
:1007400000B2704709684A0501D5C0B27047C905B3
:10075000FCD580B2704770B50C460546012A05D01D
:100760002878800600D5EA69002302E0012305E02D
:100770005B1C934202D2E05C0028F9D1A869E6181C
:10078000C01AA861286A184428622846FFF7AAFF01
:1007900004E0D5E9012114F8010B9047B442F8D3E5
:1007A0002846FFF7B5FF70BD2DE9F041064600244D
:1007B00010687529314616A510D0FFF7BAFF00283A
:1007C00002DA404213A507E031688A0701D512A575
:1007D00002E0490704D511A5012401E0FFF7B2FFAB
:1007E00000210A2206F1240709E0B0FBF2FCB0FB6D
:1007F000F2F302FB1C00303078541846491C0028E4
:10080000F3D123462A463046BDE8F04100F0B1BAA4
:10081000000000002D0000002B0000002000000060
:1008200011680268006A530501D508700AE0D30513
:1008300001D5088006E0130603D5C217C1E90002FE
:1008400000E008600120704701694A1C02610878D5
:10085000704700B58FB0CDE9013100210591054900
:100860007944CDE903101146684600F029F90FB02C
:1008700000BD0000E5FFFFFF0A6802F8010B0A60F7
:10088000704700002DE9FF5F15468A460446DFF8F1
:10089000AC80F8440027D8E900103E46CDE90010AE
:1008A00010E03AF816106A4602A800F075FE411CE6
:1008B00007D02178890603D5E269391891420DD80D
:1008C0000744761C2078800602D5E069B84205DD31
:1008D000AE42E6DB3AF816000028E2D1A069C01B60
:1008E000A0612046FFF7FEFED8E90010CDE9001018
:1008F000002017E03AF818106A4602A800F04CFEF3
:10090000B0F1FF3F81460BD000250DF1080B05E04B
:10091000D4E901211BF8050090476D1C4D45F7D324
:1009200008F10100B0428046E4DB206A38442062CE
:100930002046FFF7EDFEBDE8FF9F0000E6480000FF
:100940002DE9F0418046D21D22F007020025D2E9B0
:100950000002F52915A614D0011E72F1000106DA75
:100960000023D0EB030063EB020211A608E0D8F8E5
:1009700000108B0701D50FA602E0490701D50EA68E
:1009800001251146002408F1240704E000F0ACF929
:1009900030323A55641C50EA0102F7D12B463246F8
:1009A00021464046BDE8F04100F0E3B900000000F8
:1009B0002D0000002B0000002000000030B40021BA
:1009C00000F1240408E002F00705D208303542EABD
:1009D0004372DB086554491C52EA0305F3D10468ED
:1009E000002310A2250707D5A40600D421B1C469AD
:1009F00001230DA2641EC46130BC00F0BAB910B569
:100A0000044621461068FFF79DFE02462046BDE8D9
:100A100010400023D2E7D21D22F00701D1E90023C4
:100A2000CCE700000000000030000000F0B40D46EC
:100A30000188090502D5214C7C4402E01F4C7C440E
:100A40000E34002100F1240608E002F00F0712091D
:100A5000E75D42EA03721B097754491C52EA030717
:100A6000F3D102780023120704D5702D06D009B106
:100A7000022311342246F0BC00F07BB9012310346C
:100A8000F8E770B504460D4621461068FFF75AFE98
:100A9000024629462046BDE870400023C6E7D21D25
:100AA00022F00703D3E90023C0E70368126843F08C
:100AB000200303600823C3610023B7E74847000011
:100AC0002DE9F05F894604464FF0000ADFF874B163
:100AD000FB44C0F820A02046E1688847002874D075
:100AE000252806D0D4E901219047206A401C2062C5
:100AF000F1E700265F462046E16888472028054642
:100B000007DB312D05D2781910F8200C08B1064307
:100B1000F1E7B00701D526F00406C4F81CA00027B1
:100B2000C4F818A02A2D09D0284604F0BEFA38B31C
:100B300004EB8708303DC8F8185019E059F8041B39
:100B4000204604EB87029161E1688847012F054642
:100B500018D1E069002820DA26F020061DE0D8F838
:100B6000180000EB800005EB40003038C8F8180092
:100B70002046E1688847054604F097FA0028EED140
:100B8000012F0AD02E2D08D12046E16888477F1C0E
:100B90000546022F46F02006C4DBA069002803DAD0
:100BA000404246F00106A061F00701D026F0100691
:100BB0006C2D0BD0682D09D04C2D39D06A2D35D035
:100BC000742D35D07A2D33D016E038E0E1682F4609
:100BD00020468847B842054609D16C2F26D04FF4ED
:100BE0008060E168064320468847054604E06C2F94
:100BF0001AD04FF4807006430DB3A5F141001928B7
:100C000002D8203546F400664A462946204626602A
:100C10004E46FFF713FB80B101280BD0F61D26F0DE
:100C2000070000F1080956E74020E4E78020D8E7F4
:100C30000020D6E706F104094DE7284652E7206A6E
:100C4000BDE8F09FD846000010B5203AC0F00B80F8
:100C5000B1E81850203AA0E81850B1E81850A0E8C0
:100C60001850BFF4F5AF5FEA027C24BFB1E818501A
:100C7000A0E8185044BF18C918C0BDE810405FEA8A
:100C8000827C24BF51F8043B40F8043B08BF704706
:100C9000D20728BF31F8023B48BF11F8012B28BF0B
:100CA00020F8023B48BF00F8012B7047004870470E
:100CB00038020020034640688C46002818BF88424E
:100CC0003CBF03464068F8D318681844884207D0F0
:100CD0000CF1030020F00700001D411A521A0146D2
:100CE000081D0A60FFF769BB30B5B0F10A024FEA90
:100CF000900E71F100034EEA817EB0EB0E0061EBC5
:100D000091014FEA101E4EEA017E10EB0E0041EBFE
:100D100011114FEA102E4EEA016E10EB0E0041EB5E
:100D200011214FEA104E4EEA014E10EB0E0041EB3E
:100D30001141401841F100014FEAD00040EA4170F2
:100D40004FEAD10110EB80054FEA810444EA907428
:100D500044EB01046D1944EB0404521BA3414FF012
:100D6000000348BF0A3200D530BD401C41F10001EC
:100D700030BD2DE9F0470D4699469246044600F1F4
:100D800024080168880604D5E06921F0100121607B
:100D900000E00120A84201DD471B00E00027A16917
:100DA0007A1902EB0900081AA0612078C00602D463
:100DB0002046FFF797FC002608E0D4E901211AF845
:100DC00006009047206A401C761C20624E45F4DBEA
:100DD0002078C0060AD52046FFF784FC06E0D4E957
:100DE000012130209047206A401C2062381EA7F164
:100DF0000107F4DC07E0D4E9012118F80500904769
:100E0000206A401C2062281EA5F10105F3DC204663
:100E1000FFF77EFC2078000602D50220BDE8F087AF
:100E20000120FBE770472DE9FF4F0C461E464FF0AF
:100E3000FF378BB0D2E90001DDF860800A908A4666
:100E4000C1F30A5505B93D46002108464FF00000A0
:100E5000BAF1000F00F4400005DA00EB80004FF417
:100E6000400101EA50004FEA9059B9F1010F00DD4D
:100E7000B9460A9850EA4A000ED044F61050A5F23E
:100E8000FF3545432F14B8F1000F1ED07542291EBF
:100E90001EDDC9F100021CE0B8F1010F4FF00000A7
:100EA00001D0302103E0F24305E02154401CB04260
:100EB000FBDB30460022002121540B99C1F8088049
:100EC000C1E900200FB0BDE8F08FBD1B6D1CDEE74F
:100ED0004A4600DA694206A800F0F8FB06AB93E840
:100EE000070003AB83E8070050460A9900F0F1FCC5
:100EF0008DE80700A0F500501F3800900398002DE2
:100F00000ADD42F21F014A460844002303A9039068
:100F1000684600F05AFF09E0A0F500504A461F3825
:100F2000002303A90390684600F064FF8DE80700E2
:100F30000004000C03D04FF0FF30410800E01046E1
:100F4000B8F1000F03D00022009215461EE0751E76
:100F500005D4FFF7C9FE303262556D1EF9D5B34690
:100F60000122084302D000227F1C04E020783028B0
:100F700001D100227F1E002A099784D01DE0112D87
:100F800007DAFFF7B1FE303262556D1C50EA0102FC
:100F9000F5D1084302D00098C8B10EE00021681EC8
:100FA00005E0235C625C63542254401E491C81426C
:100FB000F7DBAB46A81B401E0990002004F80B008D
:100FC0000B98099AC0F80880C0E9002B7AE711262F
:100FD0004FF0000857E72DE9F04F88460446D21D30
:100FE00022F0070191B0D1E90001CDE90A0104F036
:100FF00033F802460B98C00F01D02D2007E020687F
:10100000810701D52B2002E0202101EAC000032A3C
:10101000099001D0072A05DB03464146204600F02F
:1010200015FB0BE12078800601D5E06900E0062081
:10103000B8F1650F814606D0B8F1660F18D0B8F147
:10104000670F70D131E00020B9F1110F009001DB82
:10105000112301E009F101030AAA01A90CA8FFF775
:10106000E2FEDDE90C70002609F10105834647E048
:1010700001204B4600904FF000470AAA01A90CA896
:10108000FFF7D1FEDDE90DB00C995D46002610B9E1
:1010900009F101000D18B9EB050003D4C0F1FF36CA
:1010A00009F10105A5EB09002BE0B9F1010F01DA07
:1010B0004FF001090020B9F1110F0090484601DD01
:1010C000112300E003460AAA01A90CA8FFF7ABFE12
:1010D000DDE90C704D4600268346207800070AD4CF
:1010E000AB4500DA5D4601A8012D04DD411911F878
:1010F000011C302907D04F4502DA17F1040F04DA3A
:10110000012082460FE06D1EEEE7002F02DCED1B92
:101110003E4403E0781CA84200DD7D1CB81B00F1B2
:10112000010A4FF000472078000703D4AA4501DBED
:101130004FF0FF3A0021B7F1004F0DF143088DF851
:10114000431024D002202B23002F01DA7F422D23CD
:101150000A21021EA0F1010000DC5FB197FBF1FC47
:1011600097FBF1F201FB1C7C17460CF1300C08F8E0
:1011700001CDEEE7A8F1010003702188090501D532
:10118000452100E06521A0F1010800F8011C099843
:101190000FA9A1EB0807FF1D00B10120411901EBC8
:1011A000EA70A1693844081A401EA0612078C00680
:1011B00002D42046FFF796FA099828B1D4E9012114
:1011C0009047206A401C20622078C00622D5204625
:1011D000FFF788FA1EE0002E04DBB34502DD01A80C
:1011E000805D00E03020D4E901219047206A401C56
:1011F0002062761CAAF101005FEA000A0AD100F021
:1012000021FAC0680168405CD4E901219047206A56
:10121000401C2062281EA5F10105DCDC07E0D4E9B2
:10122000012118F8010B9047206A401C2062381EEB
:10123000A7F10107F3DC2046FFF76AFA032011B09B
:1012400041E600002DE9F04F04460D46D21D22F084
:10125000070089B0D0E900974846394603F0FCFE04
:101260000246F80F01D02D2307E02068810701D541
:101270002B2302E0202101EAC0038DF820300BB1BE
:10128000012000E00020032A824601D0072A04DB67
:101290002946204600F0DAF93FE12078800601D4A3
:1012A0000D2500E0E569C7F30A560D2D49DA002146
:1012B0004FEA175B08464FF00000002F00F4400093
:1012C00007DA00EB80004FF4400100EBD07001EA38
:1012D00060008115012901DD4FF0FF3100224FEA46
:1012E000850CBCF1180F06D31346ACF118004FF073
:1012F0008052C24003E04FF4801323FA0CF30CF148
:101300000C0CBCF1200F04D3ACF1200C09FA0CF04A
:1013100001E007FA0CF000294FF0004801DD18B990
:101320000FE00ED140450CD319EB02095F4121B902
:10133000404502D19F4329EA0209BBEB175F00D069
:10134000761C2088000502D57B48784402E07A4864
:101350007844193808AA302302F80A30037C0AF1CD
:101360000101002E0AF1020A53546A4602DC4FF0D2
:10137000300101E04FF031014FF001088DF800100D
:1013800002D0A6F2FF3603E059EA470100D06B4EC7
:10139000002D02DC2178090704D54FF002082E2128
:1013A0008DF80110C44600210BE0C7F303433F0151
:1013B000C35C491C6D1E02F80830052908F10108BC
:1013C00001DA002DF1DC00210CE000EB1973491C5F
:1013D0001B786D1E082902F808304FEA091908F138
:1013E000010801DA002DF0DC21688B0602D516E039
:1013F000A8F10108E04505DD02EB080313F8013C04
:10140000302BF5D0B8F1000F09DD02EB080313F81B
:10141000013C2E2B03D1090701D4A8F10108002DAE
:1014200005DD3E2102F808106D1E08F10108407C20
:10143000002E02F8080008F1010804DA2D20764297
:1014400002F8080002E02B2002F808000A214FF4FD
:101450007A70864208F101080BDB96FBF0F330331B
:1014600002F8083096FBF0F308F1010800FB136660
:1014700001E0642E0CDB642096FBF0F3303302F8BD
:10148000083096FBF0F308F1010800FB136601E059
:101490000A2E06DB96FBF1F0303002F8080008F166
:1014A000010896FBF1F001FB1060303002F80800F3
:1014B000A16908F1010808EB050202EB0A00081A0D
:1014C000A0612078C00602D42046FFF70BF9216AFC
:1014D00008AE01EB0A00206204E0D4E9012116F80D
:1014E000010B9047BAF1010AF7D22078C00602D565
:1014F0002046FFF7F7F86E4609E016F8010B3E2884
:101500000FD0D4E901219047206A401C2062B8F135
:101510000108F2D22046FFF7FBF809B00320BDE82E
:10152000F08F206A2844206203E0D4E901213020B2
:1015300090476D1EEBD3F8E7823E000002FCFFFFF0
:1015400010B5436913B1AFF3008001E0FFF703F971
:10155000012010BD127800F124010A7000224A70A7
:101560000122EDE711684FF0FF32E9E710B543695A
:1015700013B1AFF3008001E0FFF784F9012010BD43
:10158000128800F1240182840022C2840122EDE746
:1015900011684FF0FF32E9E770B516460C46054674
:1015A00000F048F8036893F80101012806D0FF2CE9
:1015B0000FD8185D68B101202C7070BDD3F80701F9
:1015C0003246214603F2071303442846BDE8704023
:1015D00018474FF0FF3070BD10B500F0F7F8BDE8C8
:1015E000104000F0EEB870477546FFF75FFBAE465F
:1015F00005006946534620F00700854618B020B51F
:10160000FEF79AFEBDE820404FF000064FF00007BD
:101610004FF000084FF0000B21F00701AC46ACE89A
:10162000C009ACE8C009ACE8C009ACE8C0098D4607
:101630007047000010B500F005F8001D10BD00BF98
:10164000E53A000000487047580200202DE9F041BB
:101650001F46044603260168072A01F4006004DBE4
:1016600008B116A505E016A503E008B115A500E030
:1016700015A521F010002060A069C01EA0610FB167
:10168000401EA0612046FFF72DF84FB1D4E901219B
:1016900038469047206A401C2062C01C206206E049
:1016A000206AFAE7D4E9012115F8010B9047761E6C
:1016B000F8D22046FFF72CF8BDE8F0814E414E00ED
:1016C0006E616E00494E4600696E66002DE9F04776
:1016D000814616468AB0354878440DC88DE80D001D
:1016E00032487844801C03AC0DC884E80D0041F6F4
:1016F0009B300844372190FBF1F290FBF1F5A5F106
:10170000800501FB12041B3C02D56442012000E06D
:101710000020DFF898A080460027FA44AAF1BE0A0C
:101720000EE0E0070AD03246684607EB4701012386
:101730000AEB810100F05EFB8DE8070064107F1C5E
:10174000002CEED1194F7F44AE3F19E0E80715D0C9
:1017500007EB04100DF1180A90E80E008AE80E005D
:10176000C068F04201D1981908903246012306A9B9
:1017700003A800F03FFB03AB83E807006D10641C77
:10178000002DE3D14FF0010332466946B8F1000F56
:1017900003A802D000F019FB01E000F02BFBC9E91F
:1017A0000001C9F808200AB0BDE8F087843B0000BA
:1017B00010B50446AFF300802046BDE81040FEF7A8
:1017C000A6BD002801D000F029B8704710B5012847
:1017D00005D0002103A000F027F8012010BD09A1C9
:1017E000F8E7000053494752544D454D3A204F7594
:1017F00074206F662068656170206D656D6F727909
:10180000000000003A2048656170206D656D6F72C0
:101810007920636F727275707465640001491820D5
:10182000ABBEFEE72600020070B505460C460A2056
:1018300000E06D1C00F046F835B128780028F8D19A
:1018400002E0641C00F03EF814B120780028F8D1C2
:10185000BDE870400A2000F035B800004FF0013CB0
:1018600050F8042B51F8043B9A4215D1A2EB0C031B
:10187000934313EACC130BD150F8042B51F8043BDB
:101880009A4209D1A2EB0C03934313EACC13E7D09D
:101890004FF00000704700BFD01A01BAB1FA81F1D1
:1018A00001F0180122FA01F0CB40C1F12001DBB2B6
:1018B000C0B2C01A2CFA01F3D11A914311EAC31134
:1018C000E6D1704708B569468DF800000320ABBE2D
:1018D00008BD5FEA400C08BF91F0000F4FEA8C236F
:1018E0004FEAC12243EA51514FEA1C5018BF00F59C
:1018F000F0404FEA300018BF41F000415FEA6C5CF5
:1019000000F02980BCF1FF3F08BF40F080407047E5
:10191000130C06BF12044FF0100C4FF0000C130E06
:1019200004BF12020CF1080C130F04BF12010CF1DA
:10193000040C930F04BF92000CF1020CD30F04BFF0
:1019400052000CF1010C11464FF00002A0F11F00F3
:10195000A0EB0C00704711F0004F08BF704731F04A
:1019600000413FF4D5AF0B0C06BF09044FF0100C3B
:101970004FF0000C0B0E04BF09020CF1080C0B0F0A
:1019800004BF09010CF1040C8B0F04BF89000CF19A
:10199000020CCB0F04BF49000CF1010CCCF1200369
:1019A000A0EB0C0022FA03F302FA0CF241EA030165
:1019B00000F10100704720F07F4C80EA030023F023
:1019C0007F47ACEB070303F57C5300F0004003F1C5
:1019D000FF032DE980494FEA154B09B44FEA144340
:1019E00025EA0B4E24EA03480FF2042606EB1327E0
:1019F00049083E785FEA320203FB0667C7F5000735
:101A000007FB06F64FEA54374FEAD64606F10206C0
:101A100007FB066CCCF1005C4FEA1C472CEA074C34
:101A200007FB06F40CFB06F504EB15464FEA961689
:101A300034BF00204FF000404FEAD13706FB07FCCF
:101A40004FEA1C4C0CFB0BF7D21B03FB0CF761EBB2
:101A500007010CFB0EF7B0EB074072EB17420CFBD3
:101A600008F734BFA2EB0742B2EB074261EB174124
:101A70004FEA0C444FEA910706FB07FC4FEA1C4C67
:101A80000CFB0BF7B0EBC74072EB573203FB0CF7C4
:101A900034BFA2EBC742B2EBC74261EB57310CFB3C
:101AA0000EF7B0EBC70072EB57720CFB08F734BFB0
:101AB000A2EBC702B2EBC70261EB5771039F4FEA7B
:101AC000816141EA921104EBCC044FEAD1374FEA2D
:101AD000826206FB07FC42EA90124FEA80604FEAFE
:101AE0001C4C0CFB0BF7D21B03FB0CF761EB070143
:101AF0000CFB0EF7B0EB074072EB17420CFB08F73C
:101B000034BFA2EB0742B2EB074261EB17414FEA49
:101B10008C554FEA910704EB9C2406FB07FC4FEA27
:101B20001C4C0CFB0BF7B0EBC74072EB573203FBBE
:101B30000CF734BFA2EBC742B2EBC74261EB57319F
:101B40000CFB0EF7B0EBC70072EB57720CFB08F7FB
:101B500034BFA2EBC702B2EBC70261EB577115EBC2
:101B60004C254FEA816141EA92114FEA82624FEAC5
:101B7000D13742EA901206FB07FC44F100044FEA19
:101B800080604FEA1C4C0CFB0BF7D21B03FB0CF7DD
:101B900061EB07010CFB0EF7B0EB074072EB17424D
:101BA0000CFB08F734BFA2EB0742B2EB074261EB34
:101BB000174115EB1C154FEA813141EA92414FEA7A
:101BC000823242EA90424FEA80304FEA0C7644F18A
:101BD000000448EA03434EEA0B484FF0000EB2EB14
:101BE000080C71EB030724BF624639464EEB0E0E1C
:101BF0004FF0000B0018524149414BEB0B0BB2EB7D
:101C0000080C71EB03077BF1000B24BF62463946D9
:101C10004EEB0E0E4FF0000B0018524149414BEBBA
:101C20000B0BB2EB080C71EB03077BF1000B24BF2D
:101C3000624639464EEB0E0E51EA020718BF46F0D7
:101C4000010616EB0E7655F1000254F1000103D5A2
:101C5000BDE88901BDE80088BDE88901BDE800480C
:101C6000B619524141EB0101A3F101037047808095
:101C70007F7E7D7C7B7A79787776767574737271E6
:101C800071706F6E6E6D6C6C6B6A6A69686867669E
:101C900066656464636362616160605F5F5E5E5D30
:101CA0005D5C5C5B5B5A5A595958585757565655A4
:101CB00055555454535352525251515050504F4F06
:101CC0004F4E4E4D4D4D4C4C4C4B4B4B4A4A4A4956
:101CD0004949484848474747474646464545454499
:101CE0004444444343434342424242414141002B26
:101CF0009C4630D477002BD01CB54FEA370703B48D
:101D00004FF010004FF01001BAF1000F06D0BCF1F7
:101D1000000FDCBF40F0080040F008014FF0000069
:101D20000FBCBDE810400BF1010BBBF1010F08BF68
:101D30005FEA170722BF12F1010211F101014FF012
:101D4000004143F1000300F0004043EA0000704707
:101D5000F9D35708D0E746EA064613F1400F4FEA99
:101D600016461FDD13F1200FDFBF16430A46002180
:101D700020335B42BED0C3F1200746EA064602FA92
:101D800007F74FEA164646EA0706C3F1200722FA8C
:101D900003F201FA07F721FA03F14FF0000342EAD8
:101DA0000702A7E746EA020646EA06464FEA164653
:101DB00046EA0106BCBF46EA0646360C4FF0000371
:101DC0004FF000024FF0000194E72DE9804C9A4655
:101DD000934670B491E8380007C831EA400C48BF18
:101DE00034EA430C03D5FFF7E6FDFFF780FFF0BCB4
:101DF000BDE8008C2DE9804C9A46934670B491E87A
:101E0000380007C810F0804F08BF13F0804F03D18F
:101E100000F005F8FFF76BFFF0BCBDE8008C20F088
:101E20007F4780EA030023F07F4C07EB0C03A3F508
:101E30007C5300F00040A3F1FE0392F0000F00F08D
:101E4000B38095F0000F00F077802DE901494FEA4B
:101E500011404FEA144621EA004800FB06FC24EA40
:101E6000064708FB06F607FB08F800FB07F718EB28
:101E700006484CEB164C4FEA124B18EB07484FEA5A
:101E800015464CEB174022EA0B4E0BFB06FC25EAED
:101E900006470EFB06F607FB0EFE0BFB07F71EEBD5
:101EA000064E4CEB164C4FF000061EEB074E4CEB6B
:101EB000174B18EB0B0840F1000018EB0E0B58EB1A
:101EC000000840F100008F1A4FF000013CBFC943E9
:101ED000661B14BFB5EB040C00213CBFC943F61BC5
:101EE0004FEA17444EEA8E0E27EA04454FEA1C4794
:101EF00004FB07622CEA074C05FB07F70CFB05F611
:101F000004FB0CFC16EB074642EB174216EB0C46A3
:101F100042EB1C421BEB060658EB0202414146EA2B
:101F20009E0601D5BDE80189B619524141EB010178
:101F3000A3F10103BDE801894FEA14454FEA1147B7
:101F400024EA054621EA074C05FB07F406FB07F7E0
:101F50000CFB06F105FB0CFC11EB074144EB1744AD
:101F60004FEA124711EB0C4144EB1C4422EA074CA8
:101F700005FB07F206FB07F70CFB06F605FB0CFC5E
:101F800016EB074642EB174216EB0C4642EB1C459C
:101F90006A1854F1000148BF7047B619524141EB2D
:101FA0000101A3F10103704795F0000F37D04FEA0C
:101FB00011424FEA144721EA024624EA074C02FB89
:101FC00007F106FB07F70CFB06F402FB0CFC14EB15
:101FD000074441EB17414FEA154714EB0C4441EB22
:101FE0001C4125EA074C02FB07F506FB07F70CFB33
:101FF00006F602FB0CFC16EB074645EB174516EB05
:102000000C4645EB1C42121951F1000148BF7047C4
:10201000B619524141EB0101A3F1010370474FEAA8
:1020200014454FEA114724EA054621EA074C05FB0F
:1020300007F106FB07F70CFB06F24FF0000605FB65
:102040000CFC12EB074241EB174112EB0C4251EB37
:102050001C4148BF7047921841EB0101A3F10103F5
:1020600070470000F8B5044600208DF80000217884
:102070004D1C601950F8046C13A000F099FD291F45
:102080003246204600F072FD28B118A000F090FD05
:1020900000F0E8FBF8BD1CA000F08AFD012000F074
:1020A000CFFBE178A07802F061FB01288DF80000F9
:1020B00007D01CA000F07CFD0121684600F0E0FB89
:1020C000F8BD1CA0F6E70000536563746F72206FC3
:1020D00072204D617373204572617365206F6620B5
:1020E000466C617368200D0A000000004372632093
:1020F000566572696669636174696F6E20466169CD
:102100006C6564200D0A0000437263205665726995
:102110006669636174696F6E2050617373656420D2
:102120000D0A00004572617365204661696C656443
:10213000200D0A00457261736520737563636573D2
:1021400073200D0A0000000070B5017804464D1C94
:10215000284450F8046C14A000F02AFD291F3246D0
:10216000204600F003FD30B1154800F021FDBDE828
:10217000704000F077BB134800F01AFD0F2000F00C
:102180005FFB11480F2100F07BFB10A000F010FD59
:102190000D4D002417A0295D0A4600F009FD641CBE
:1021A000E4B20F2CF6D370BD2047657420436D64F4
:1021B000205265636569766564200D0A00000000A1
:1021C000F02700088422000810000020486572658E
:1021D000206973204C697374204F662053757070AA
:1021E0006F7274656420436F6D6D616E64730D0A68
:1021F000000000002564203D2030782578200D0A5D
:1022000000000000F8B504460020ADF80000217879
:102210004D1C601950F8046C12A000F0C9FC291F75
:102220003246204600F0A2FC28B1154800F0C0FC60
:1022300000F018FBF8BD13A000F0BAFC19480068C4
:10224000C0F30B00ADF80000022000F0F9FA022103
:10225000684600F015FBBDF8001013A000F0A8FCC4
:10226000F8BD0000476574204D4355204944204384
:102270006D64205265636569766564200D0A00000F
:10228000F02700084352432056657269666963610E
:1022900074696F6E20537563636573736564200D95
:1022A0000A000000002004E04D4355204944206905
:1022B000732030782578200D0A000000F8B5044618
:1022C00017A00068009021784D1C601950F8046C2C
:1022D00014A000F06DFC291F3246204600F046FC99
:1022E00028B117A000F064FC00F0BCFAF8BD1BA0F8
:1022F00000F05EFC042000F0A3FA0421684600F020
:10230000BFFA9DF800101DA000F052FC9DF80330AC
:1023100022A09DF802209DF8011000F049FCF8BDB4
:10232000C80100005265616420426F6F746C6F6178
:102330006465722056657273696F6E200D0A000025
:1023400043524320766572696669636174696F6E92
:10235000204661696C6564200D0A000043524320E9
:10236000766572696669636174696F6E20737563FF
:10237000636573736564200D0A000000426F6F741B
:102380006C6F616465722056656E646F722069645B
:10239000203A2025642E0D0A00000000426F6F7461
:1023A0006C6F616465722056657273696F6E206927
:1023B000733A2025642E25642E2564200D0A000022
:1023C000F8B5044600208DF8000021784D1C6019F6
:1023D00050F8046C19A000F0EBFB291F3246204690
:1023E00000F0C4FB28B121A000F0E2FB00F03AFAB3
:1023F000F8BD25A000F0DCFB012000F021FAD4F8A4
:102400000240204602F076F801288DF8000007D03F
:1024100025A000F0CDFB0121684600F031FAF8BD9F
:1024200027A000F0C5FB0121684600F029FA641CD2
:1024300028A0214600F0BCFBA047F8BD4A756D708E
:1024400020546F2053706563696669656420416438
:10245000647265737320436F6D6D616E64205265A5
:10246000636569766564200D0A00000043524320CD
:10247000566572696669636174696F6E2046616949
:102480006C6564200D0A0000435243205665726952
:102490006669636174696F6E2053756363657373F6
:1024A0006564200D0A000000416464726573732046
:1024B000697320696E76616C6964200D0A00000002
:1024C000416464726573732069732076616C69641A
:1024D000200D0A004A756D7020546F203A20307824
:1024E0002558200D0A0000002DE9F041017804462E
:1024F0004D1C46192DA056F8067C00F059FBA91F6B
:102500003A46204600F032FB30B130A000F050FBDC
:10251000BDE8F04100F0A6B933A000F049FBD4F8C3
:102520000250284601F0E6FF012804D0BDE8F04142
:1025300035A000F03DBB3AA000F03AFBA47A3DA0E4
:10254000214600F035FB56F8016C6000FDF706FFF0
:10255000074684F0FF00B0421ED13BA000F028FBEC
:10256000601CC0B200F06CF902F00EFBCC280FD05A
:1025700055280DD0621C29463846FDF7CFFF611C57
:10258000384600F07DF93BA0294600F011FB08E039
:1025900042A000F00DFB04E047A000F009FB00F0B2
:1025A00061F93846BDE8F041FDF707BF5265616447
:1025B000204D656D6F727920436F6D6D616E642083
:1025C0005265636569766564200D0A0043524320B5
:1025D000566572696669636174696F6E20466169E8
:1025E0006C6564200D0A00004352432056657269F1
:1025F0006669636174696F6E205375636365737395
:102600006564200D0A0000004164647265737320E4
:10261000697320696E76616C6964200D0A000000A0
:10262000416464726573732069732076616C6964B8
:10263000200D0A002044617461204C656E67746847
:1026400020307825780D0A0043524320446174619C
:10265000204C656E677468205665726966696361AF
:1026600074696F6E20537563636573736564200DC1
:102670000A00000048657265206973204461746136
:102680002053746172742066726F6D2041646472AD
:102690006573732030782578200D0A0043616E271A
:1026A0007420526561642064756520524450204C4A
:1026B0006576656C200D0A004352432044617461C5
:1026C000204C656E6774682056657269666963613F
:1026D00074696F6E204661696C6564200D0A0000A4
:1026E000F8B5002504468DF8005001784E1C3044A2
:1026F00050F8047C16A000F05BFA311F3A462046E1
:1027000000F034FA28B11A4800F052FA00F0AAF8A2
:10271000F8BD17481C3000F04BFA012000F090F88B
:10272000A078022805D0CC2803D028B1012805D0F4
:1027300005E08DF8005006E0AA2000E0552002F0E8
:102740006BF88DF800000121684600F099F8F8BD9B
:10275000456E61626C6520526561642050726F74D1
:10276000656374696F6E204C6576656C200D0A0098
:10277000F0270008F8B50446EE208DF80000217817
:102780004D1C601950F8046C11A000F011FA291FBB
:102790003246204600F0EAF928B115A000F008FA08
:1027A00000F060F8F8BD19A000F002FA012000F076
:1027B00047F802F0E9F901218DF80000684600F0C1
:1027C0005FF89DF8001018A000F0F2F9F8BD0000C5
:1027D00047657420526561642050726F746563743C
:1027E000696F6E204C6576656C200D0A0000000054
:1027F00043524320566572696669636174696F6EFE
:10280000204661696C6564200D0A00004352432034
:10281000566572696669636174696F6E2050617391
:10282000736564200D0A0000524450204C657665A3
:102830006C2069732030782558200D0A00000000B4
:1028400008B50021792200914B1E8DF8002002224C
:102850008DF801006946024801F0F9FD08BD00004D
:10286000CC00002008B51F204FF0FF33012269463D
:102870008DF80000014801F0EAFD08BDCC00002001
:102880008AB24FF0FF330146014801F0E0BD00007D
:10289000CC0000202DE9FC41044600208DF8040006
:1028A0008DF8000021784D1C601950F8046C2DA0A3
:1028B00000F07EF9291F3246204600F057F930B16A
:1028C00034A000F075F9FFF7CDFFBDE8FC8138A01A
:1028D00000F06EF90120FFF7B3FFD4F802503CA0DE
:1028E000A679294600F064F9284601F003FE012884
:1028F0008DF8040007D03DA000F05AF9012101A88D
:10290000FFF7BEFFE1E741A000F052F904F107082C
:102910000024274600F026FDA0B90CE0002318F89B
:1029200004202919184600F0DBFC08B1002709E053
:102930000127641CA4B2B442F0D31FB100F09CFC88
:102940000028F3D14FF0010168468DF800701FB1E7
:10295000FFF796FF35A002E0FFF792FF38A000F0E6
:1029600027F9B2E74A756D7020546F205370656384
:102970006966696564204164647265737320436F9E
:102980006D6D616E64205265636569766564200DC6
:102990000A0000004352432056657269666963610C
:1029A00074696F6E204661696C6564200D0A0000D1
:1029B00043524320566572696669636174696F6E3C
:1029C00020537563636573736564200D0A0000000E
:1029D000486F737420416464726573732069732057
:1029E0003A2030782558200D0A00000041646472B6
:1029F0006573732056616C69646174696F6E2046FB
:102A000061696C6564200D0A000000004164647215
:102A10006573732056616C69646174696F6E2053CD
:102A20007563636573736564200D0A005061796C8A
:102A30006F61642076616C6964200D0A00000000FB
:102A40005061796C6F616420496E76616C696420B5
:102A50000D0A0000F8B50446EE208DF8000021783C
:102A60004D1C601950F8046C10A000F0A1F8291F4B
:102A70003246204600F07AF828B1134800F098F862
:102A8000FFF7F0FEF8BD10481C3000F091F801206F
:102A9000FFF7D6FEA078E11C01F0CAFF01218DF8F6
:102AA00000006846FFF7ECFEF8BD0000577269743D
:102AB000652050726F74656374696F6E204C657623
:102AC000656C200D0A000000F0270008F8B50446E8
:102AD000EE208DF8000021784D1C601950F8046C30
:102AE00011A000F065F8291F3246204600F03EF89C
:102AF00028B1174800F05CF8FFF7B4FEF8BD1448A1
:102B00001C3000F055F80120FFF79AFE01F008FF95
:102B100001218DF800006846FFF7B2FE9DF8001015
:102B20000CA000F045F8F8BD476574204469736156
:102B3000626C652057726974652050726F746563AA
:102B400074696F6E205374617465200D0A00000073
:102B5000F027000857525020537461746520697340
:102B60002030782558200D0A00000000F8B50746EF
:102B7000164600200D460446009008E0385D01220C
:102B800000906946094800F02FFA641CE4B2AC4298
:102B9000F4D3064986420868816841F001018160EA
:102BA00001D10020F8BD0120F8BD00002000002068
:102BB0000FB4C82100B5B3B06846FDF716FD3499CF
:102BC00035AA6846FDF798FC0448C8224FF0FF3349
:102BD000694601F03CFC33B05DF814FB4400002072
:102BE00070B53A480024C821FDF7DDFC651E374961
:102BF000374801222B4601F0B9FB70BB334E2B4600
:102C00003348711C327801F0B1FB30BB7078442836
:102C100041D00FDC11282ED005DC00B3012822D0D2
:102C2000022817D123E0212829D031282BD043288E
:102C300010D12CE073283AD006DC50282DD0512832
:102C40002FD0632806D12EE0822834D0922836D0A7
:102C5000A12839D01FA0FFF7ABFF204670BD1B484D
:102C6000FFF772FA2EE01948FFF728FB2AE0174811
:102C7000FFF7C8FA26E01548FFF736FC22E01348B4
:102C8000FFF79EFB1EE01148FFF704FE1AE00F4815
:102C9000FFF7E8F916E01BA000E022A0FFF788FF8D
:102CA00010E026A0FAE70948FFF7D4FE0AE007483B
:102CB000FFF70CFF06E00548FFF712FD02E00348AE
:102CC000FFF758FD0124C8E725A0E7E770010020C1
:102CD000CC0000204572726F7220696E20486F73BD
:102CE0007420636F6D6D756E69636174696F6E20BA
:102CF000696E76616C696420636F6D6D616E6420CE
:102D00000D0A0000457874656E6465642045726143
:102D1000736520436D642052656365697665642040
:102D20000D0A00005370656369616C20436D642077
:102D30005265636569766564200D0A00457874659F
:102D40006E646564207370656369616C20436D64B3
:102D5000205265636569766564200D0A00000000F5
:102D6000436865636B2073756D20436D6420526505
:102D7000636569766564200D0A000000FEE7704710
:102D800072B6FEE74FF0000229B101291CD00229DA
:102D90001DD04FF440720F490B6823F440730B6051
:102DA0000B6813430B600A68022303EBC00322F095
:102DB000F8020A60086818430860086840F4803028
:102DC0000860BFF34F8F70474FF48072E3E74FF412
:102DD0000072E0E7103C024009494FF480330A6872
:102DE00043EA002322F440700860086840F00400C1
:102DF0000860086818430860BFF34F8F70470000F1
:102E0000103C024070B50C4605464CF2503000F0C4
:102E100099F8002806D1064A102D116803D064F3F2
:102E20001F41116070BD6FF30F012143F9E70000EE
:102E3000183C024010280348006801D0000C70477D
:102E400080B27047183C0240074A136823F440736D
:102E5000136013681360136843F00103136001707B
:102E6000BFF34F8F70470000103C02400A4910B575
:102E70000C6824F440740C600C6844F440740C60DA
:102E80000C6844F001040C600260BFF36F8F436074
:102E9000BFF34F8F10BD0000103C0240084A13687A
:102EA00023F440731360136843F480731360136852
:102EB00043F0010313600180BFF34F8F70470000A0
:102EC000103C0240084A136823F4407313601368EF
:102ED00043F400731360136843F00103136001604F
:102EE000BFF34F8F70470000103C02401349144855
:102EF0000A68920703D5826942F0200282610A685B
:102F0000D20603D5826942F0100282610A689206F5
:102F100003D5826942F0080282610A68520603D52D
:102F2000826942F0040282610A68120603D582694E
:102F300042F002028261F220086070470C3C0240BD
:102F400054010020124970B505460020886100F048
:102F50004BFB104C064609E0681C07D025B100F079
:102F600043FB801BA84201D9032070BD2068C00329
:102F7000F2D4206810F0F20F03D0FFF7B7FF012062
:102F800070BD2068C00701D001202060002070BD06
:102F9000540100200C3C0240F0B5012604460020FC
:102FA0001E2301E05B1E05D303F01F0706FA07F599
:102FB0000D42F7D072B1082A0AD0102A05D0182A7B
:102FC00001D1072B06D30120F0BD082BFBD201E075
:102FD000102BF8D22368596121688B6823F01803FD
:102FE00013438B60F0BD000030B50223437700230C
:102FF00005E000BF046851F8235025605B1C934234
:10300000F8D30168012209684277084630BD000004
:1030100010B5040010D0607F20B900202077204632
:1030200000F032F821790220607739B1D4E9021238
:103030002046FFF7B1FF48B1012010BD21681148BB
:1030400048612068816821F0180181606079A0B131
:10305000216820690861012220686369816821F084
:103060006001194381602068A369816821F08001B3
:10307000194381606277002010BD21684FF0FF3056
:10308000E8E70000B71DC10408B50068064988429A
:1030900008D10648016841F480510160006800F4DD
:1030A0008050009008BD00000030024030380240DF
:1030B0002DE9F04704461F480F46017D012909D03C
:1030C00001214CF25039804601754846FFF73AFF1E
:1030D00018B12AE00220BDE8F0874FF0FF313960D7
:1030E0002168154D012901D0666819E0207BFFF7A2
:1030F00073FE4846FFF726FF296821F00401296086
:1031000013E0217B3046FFF73DFE4846FFF71AFFEC
:10311000296821F07A01296008B13E6005E0761C3B
:10312000D4E901211144B142EBD8002288F81420DF
:10313000D1E7000054010020103C024010B51149B5
:1031400004463F20206008684A1C00F47F00A0600D
:103150001378AA20AA2B03D01078CC2800D05520B1
:10316000E060094A086810406061086800F00C00DF
:1031700020611020FFF75EFEA0612020FFF75AFEBD
:10318000E06110BD143C0240F00000C02DE9F05F8A
:103190003649044601200A7D012A0FD001220A7512
:1031A0002178334DC90715D06068A66801284CF214
:1031B000503006D0FFF7C6FE48B10BE00220BDE854
:1031C000F09FFFF7BFFE28B92968B14301E02968E5
:1031D000314329602178890708D5267B4CF250308D
:1031E000FFF7B0FE10B92249491C0E70217849073B
:1031F0001FD5606900F0100B00F0200600F0400AB7
:1032000000F0800900F0004800F080474CF2503098
:10321000FFF798FE68B9296846EA0B0646EA0A06EF
:10322000144A46EA090646EA080691433E433143FA
:10323000296021780026090706D5217C30462A68B6
:1032400022F00C020A432A602178C90603D5A1693D
:103250001020FFF7D7FD2178890603D5E1692020EA
:10326000FFF7D0FD01490E75A9E7000054010020C9
:10327000143C0240F00000C00348016841F00041E6
:103280000160002070470000103C024004480168C3
:1032900041F0020101604CF25030FFF753BE0000D4
:1032A000143C02400348016841F001010160002024
:1032B00070470000143C024006480068C00707D071
:1032C000044805490C38054A016002600020704737
:1032D00001207047143C02403B2A19087F6E5D4C68
:1032E0002DE9F0471D4D074614461E468946287DA8
:1032F000012808D001204CF2503828754046FFF7CD
:1033000021FE18B126E00220BDE8F08737B1012F79
:1033100009D0022F0CD0032F14D10EE04846E1B2A1
:10332000FFF792FD0EE0A1B24846FFF7B7FD09E0B6
:1033300021464846FFF7C6FD04E02246334648468C
:10334000FFF794FD4046FFF7FDFD05490A6822F0AE
:1033500001020A6000212975D6E70000540100200F
:10336000103C02400849002010B50A68002A09DA1A
:10337000054A064B0C3A064C136014600968002994
:1033800000DA012010BD0000103C02402301674517
:10339000AB89EFCD2DE9F84FDFF80CB201240325FE
:1033A0004FF00F0A00220BF1040E00BF0B6804FA65
:1033B00002F63340B34278D10F7907F00307012FAB
:1033C00001D0022F1AD187684FEA4209D1F80CC008
:1033D00005FA09F827EA08070CFA09FC4CEA070C79
:1033E000C0F808C0476891F804C0B743CCF3001C8C
:1033F0000CFA02FC4CEA070CC0F804C00E79F64344
:10340000B6070BD0C6684FEA420C8F6805FA0CF875
:1034100026EA080607FA0CF73743C7600E7906F06C
:103420000306022E12D1D6084FEA427800EB860638
:1034300000960F69D6F820904FEAD8660AFA06FC83
:10344000B74029EA0C063743009E37620F790668B9
:103450004FEA420C07F0030705FA0CF807FA0CF7DD
:1034600026EA0806374307604E6816F4403F1CD032
:103470004E4E376847F480473760366822F00308BD
:10348000970706F480460096494E3F0F4644B146E2
:10349000D6F80868DFF81C810AFA07FC404526EADE
:1034A0000C0603D14FF0000C41E076E0DFF808C1D4
:1034B000604502D14FF0010C39E0DFF800C16045F2
:1034C00002D14FF0020C32E0DFF8F4C0604502D1C7
:1034D0004FF0030C2BE0DFF8ECC0604502D14FF059
:1034E000040C24E0DFF8E0C0604502D14FF0050C89
:1034F0001DE0DFF8D8C0604502D14FF0060C16E0A1
:10350000DFF8CCC0604502D14FF0070C0FE0DFF8C8
:10351000C4C0604502D14FF0080C08E0DFF8B8C025
:10352000604502D14FF0090C01E04FF00A0C0CFA93
:1035300007FC4CEA060CC9F808C84F68DBF80060C5
:10354000FF0226EA030600D51E437746CBF800604B
:10355000D1F804C0DEF800605FEA8C2C26EA03068E
:1035600000D51E43DFF840C03E60ACF1040C4F684C
:10357000DCF80060BF0326EA030600D51E430A4FAD
:10358000CCF80060083FD1F804C03E685FEACC3C4C
:1035900026EA030600D51E433E60521C102AFFF4A3
:1035A00005AFBDE8F88F0000083C014044380240F8
:1035B00000300140000002400004024000080240C8
:1035C000000C0240001002400014024000180240AB
:1035D000001C024000200240002402400AB1816128
:1035E00070470904FBE7000001488068704700004D
:1035F0000000002002488168027811448160704711
:1036000000000020032010B500F076F8002000F044
:1036100005F800F023F8002010BD000070B50D4D36
:1036200004464FF47A700C4A29781268B0FBF1F026
:10363000B2FBF0F000F0D0FD48B9102C07D2002208
:103640002146501E00F038F800206C6070BD01204B
:1036500070BD0000000000200C0000200E4808B5DE
:10366000016841F080510160006800F080500090D6
:103670000948001D016841F4804101600068002292
:10368000114600F480400090052000F015F8BDE8D8
:103690000840052000F002B840380240002809DB4D
:1036A000410900F01F028900012001F1E021904052
:1036B000C1F80001704700000E4BF0B41B680D46C6
:1036C000C3F30223C3F10706042E00D90426191DF3
:1036D000072901D2002300E0DB1E012404FA06F1D1
:1036E0009C40491E2940641E994014402143F0BC6F
:1036F00001F0CABC0CED00E0064900F0070210B56D
:103700004FF6FF040868044B204040EA02201843AB
:10371000086010BD0CED00E00000FA051848F8B58F
:10372000016841F0805101600068164C00F0805043
:103730000090206840F480302060FFF755FF4FF480
:103740007A76054605E000BFFFF74EFF401BB0420A
:103750000FD86068C003F7D5206840F400302060BF
:10376000FFF742FF054606E0FFF73EFF401BB04271
:1037700001D90320F8BD60688003F5D50020F8BDAD
:1037800040380240007000402DE9F84F04460078B0
:10379000DFF824944FF000063746C0070ED0D9F862
:1037A000001021F40001C9F80010D9F80010626B74
:1037B0001143C9F80010606B00B90126FE4D206866
:1037C000843500030ED5E16B286820F440100843CF
:1037D0002860E06BB0F5801F01D010B102E0012637
:1037E00000E0012720684FF4800BC0020CD5216C4B
:1037F000286820F4400008432860206C584501D117
:10380000012601E000B901272068C10100D5012689
:10381000800666D5E8483830016841F08051016083
:103820000068DFF898A300F080500090DAF80010EC
:1038300041F48071CAF80010FFF7D6FE804605E01B
:10384000FFF7D2FEA0EB080064287DD8DAF800006C
:10385000C005F5D5DFF8608308F16808D8F80000E6
:1038600010F440702AD0218E01F44071814225D09D
:10387000D8F80010D8F8002021F4407142F48032CA
:10388000C8F80020D8F8002022F48032C8F80020C0
:10389000C8F80010D8F80000C0070FD0FFF7A4FE4A
:1038A000824607E0FFF7A0FEA0EB0A0141F2883054
:1038B0008142CAD8D8F800008007F3D5206BC0F346
:1038C000012103297ED0D9F8001021F4F811C9F89C
:1038D0000010228ED8F80010C2F30B021143C8F872
:1038E00000102078C00607D5286820F08070286076
:1038F0002868A16B084328602188AF4888304904B4
:1039000005D5626E016821F44031114301602188C0
:10391000090405D5A26E016821F44021114301601C
:103920002168C90305D5E26E016821F440111143F5
:1039300001602168890305D5226F016821F44001E7
:1039400011430160217800E016E1490605D5626C5B
:10395000016821F00301114301602178090605D5B2
:10396000A26C016821F00C01114301602188C90596
:1039700005D5E26C016821F0300111430160218816
:10398000890505D5226D016821F0C0011143016050
:103990002188490505D5626D016821F44071114304
:1039A00001602188090505D5A26D016821F44061F7
:1039B000114301602188C90407D5E26D016821F433
:1039C000405100E04AE0114301602188890405D597
:1039D000226E016821F440411143016021684902CF
:1039E00005D5A26F016821F0806111430160216853
:1039F0004FF0006A890209D5E26F016821F0006189
:103A000011430160E16F514500D1012721680A0788
:103A100000D50127490305D5626F016821F0407187
:103A2000114301602168090206D5D4F8802001689D
:103A300021F0805111430160DFF88491012E02D002
:103A4000206880017ED5D9F800004E4620F08060C5
:103A5000C9F80000FFF7C8FD80460FE0594AD9F8C1
:103A60000030104023F4F8120243C9F8002030E778
:103A7000FFF7BAFDA0EB080064287DD8306800018C
:103A8000F6D421784C487C30C90712D0616B81B9DB
:103A9000237A62680168D0F800C09201C1F3014145
:103AA00042EA0142CCF3036142EA016141EA037157
:103AB000016021680A0303D5E26BB2F5801F04D0D0
:103AC000C9021AD5216C594517D16368016894F869
:103AD0000CC002689B01C1F3014143EA0141C2F3FA
:103AE000027241EA0C6141EA027101602968626A6E
:103AF00021F01F01521E114329602168C90110D510
:103B0000238A62680168D0F800C09201C1F30361A2
:103B100042EA034242EA0162CCF3027142EA0171D5
:103B20000160216889010CD56168228A237B94F8A1
:103B300008C0890141EA024141EA036141EA0C718E
:103B4000016000E011E03168B04641F08061316011
:103B5000FFF74AFD064604E0FFF746FD801B642898
:103B60000AD8D8F800000001F6D56FB3D9F80000E4
:103B70004E4620F0805000E07BE0C9F80000FFF7DF
:103B800033FD074605E000BFFFF72EFDC01B64288C
:103B90006FD83068C0438000F6D507482168803070
:103BA0000A0301D5E26B1AB1C90225D5216C19BBF4
:103BB00063690168277E08E0083802400070004011
:103BC00000380240FFFCFF0F5AE00268C1F30141D8
:103BD0009B0143EA0143C2F3027143EA076242EAEE
:103BE0000171016029686FF0FF03A26A21F4F851A6
:103BF00003EB0222114329602168890212D5E16F8B
:103C000051450FD1238C6269016807689201C1F3A5
:103C1000036142EA034242EA0162C7F3027142EAE7
:103C2000017101602178090716D561690268D0F831
:103C300000C08B01277FC2F30362CCF3014143EA4A
:103C4000014141EA026141EA077101602868E16AC5
:103C500020F4403008432860306840F080503060E5
:103C6000FFF7C2FC044607E0FFF7BEFC001B642818
:103C700002D90320BDE8F88F3068C0438000F3D438
:103C80000020F7E72DE9F04705000F4663D0444ECA
:103C9000306800F00F00B84209D2306820F00F0001
:103CA00038433060306800F00F00B84253D12868C4
:103CB0003C4C810712D5400703D5206840F4E05002
:103CC00020602878000703D5206840F46040206019
:103CD000A968206820F0F000084320602878C00719
:103CE0002AD0304968680839012810D009680228AC
:103CF00010D0890700292EDA216821F00301014341
:103D00002160FFF771FC804641F288390DE00968B7
:103D10008903EFE78901EDE7FFF766FCA0EB0801F7
:103D2000494502D90320BDE8F0876868216801F0A1
:103D30000C01B1EB800FEFD1306800F00F00B842FA
:103D40000BD9306820F00F0038433060306800F045
:103D50000F00B84201D00120E5E72878400705D5DB
:103D6000E968206820F4E0500843206028780007C4
:103D700006D52869216821F4604141EAC00020602D
:103D800000F038F82168084AC1F30311515CC840BB
:103D90000649086006480068FFF740FC0020C2E7BB
:103DA000003C024008380240625100080C0000202C
:103DB000040000200449054809680068044AC1F36A
:103DC0008221515CC8407047083802400C00002036
:103DD000725100080449054809680068044AC1F3A3
:103DE0004231515CC8407047083802400C00002046
:103DF00072510008154910B51548096811F00C02F8
:103E000013D04110042A0FD0082A0ED10F4C241FC2
:103E10002268236802F03F025B0207D52068C0F3E6
:103E20008810A0FB010106E0084610BD2168C1F31F
:103E30008811A1FB00010023FCF7E6FA2168C1F319
:103E40000141491C4900B0FBF1F010BD08380240A7
:103E50000024F4002DE9F84F04004FF000076ED065
:103E60002078DFF868A3AAF10408C007A8F10405C8
:103E70004CD0DAF800105046C1F38101012908D076
:103E80000068C0F3810002280AD1D8F8000040027F
:103E900006D52868800339D560680028DFD035E072
:103EA0006068B0F5803F0BD010B1B0F5A02F11D0F5
:103EB000286820F480302860286820F4802002E000
:103EC000286840F480302860606890B1FFF78CFB70
:103ED00006460AE0286840F480202860F0E700BF2A
:103EE000FFF782FB801B642872D828688003F7D50F
:103EF0000CE0FFF779FB064605E000BFFFF774FB17
:103F0000801B6428F0D828688003F7D420788007C5
:103F100042D5DAF80010504611F00C0F08D00068B6
:103F2000C0F3810002280BD1D8F80000400207D46A
:103F30002868800718D5E068012800D114E041E125
:103F4000E0680028286817D040F001002860FFF7DB
:103F50004BFB064605E000BFFFF746FB801B02282F
:103F6000C2D828688007F7D52069296821F0F801B0
:103F700041EAC00028600FE020F001002860FFF750
:103F800033FB064605E000BFFFF72EFB801B02282F
:103F90001ED828688007F7D42078000729D58B48D9
:103FA00061696C3000298146016812D041F001013D
:103FB0000160FFF719FB064605E000BFFFF714FBA1
:103FC000801B022804D8D9F800008007F6D510E03D
:103FD00089E021F001010160FFF706FB064604E0DD
:103FE000FFF702FB801B02287DD8D9F8000080076C
:103FF000F6D4207840076BD5DFF8D09109F1380965
:10400000D9F80000C0000BD4D9F8001041F080515D
:10401000C9F80010D9F80000012700F08050009086
:104020006B480168C90512D40168834641F4807168
:104030000160FFF7D9FA064605E000BFFFF7D4FAA2
:10404000801B64284FD8DBF80000C005F6D55F4E12
:10405000A068683601280AD008B1052811D0306858
:1040600020F001003060306820F0040002E0306889
:1040700040F001003060A068A0B1FFF7B5FA8346B8
:104080000CE0306840F004003060F0E7FFF7ACFA75
:10409000A0EB0B0141F28830814266D8306880077E
:1040A000F4D50EE0FFF7A0FA834607E0FFF79CFA8D
:1040B000A0EB0B0141F28830814256D8306880076E
:1040C000F4D42FB1D9F8001021F08051C9F80010B4
:1040D000A069C8B3DAF80010C1F3810102294BD0FE
:1040E0000228286800E040E020F08070286003D0BB
:1040F000FFF77AFA04463BE0FFF776FA064604E05B
:10410000FFF772FA801B02282FD828688001F7D4A5
:10411000D4E90962D4E907012E4B570894F82C2002
:10412000084303EB074343EA8611084340EA026071
:1041300040F00050C8F80000286840F08070286007
:10414000FFF752FA044606E03EE000BFFFF74CFAE4
:10415000001B022809D828688001F7D534E000BF89
:10416000FFF742FA001B022802D90320BDE8F88FAE
:1041700028688001F4D427E00128D8F8000021D075
:10418000E16900F480028A421CD1216A00F03F02FA
:104190008A4217D1626A47F6C0710140B1EB821FB3
:1041A00010D1A16A4FF0FF3200F4403302EB51010D
:1041B000B3EB014F06D194F82C1000F07060B0EB17
:1041C000016F01D00120D1E70020CFE7083802407D
:1041D000007000400000FFFF401EB0F1807F10B56E
:1041E00001D3012010BD4FF0E02460610F21601762
:1041F00000F04AFF0020A0610721216110BD10B529
:10420000040002D0E06F10B107E0012010BD0020D3
:1042100084F87800204600F025F82420E067206824
:10422000016821F001010160204600F097FD01289E
:10423000ECD0606A10B1204600F00AFD20684168A9
:1042400021F4904141602068816821F02A01816059
:104250002068016841F0010101602046BDE810407E
:1042600000F05ABD2DE9F041A8B00546142121A85F
:10427000FCF7BBF984216846FCF7B7F936490226FA
:1042800028680327334C002588424FF0080836D1B0
:104290008020129500906846FFF776FA08B1FEF785
:1042A0006FFD2C481030016841F400310160006856
:1042B00000F400302690206840F001002060206863
:1042C00000F001002690206840F00800206020687F
:1042D0000724CDF8848021A900F008002497CDE9B7
:1042E00025401E48CDE92265FFF754F8202023958C
:1042F000CDE921061A4821A9CDE9247425E0194900
:10430000884224D1C014169500906846FFF73CFA05
:1043100008B1FEF735FD0F481430016841F0200167
:104320000160006800F020002690206840F0040042
:1043300020602068C021CDE9211600F0040021A9E9
:10434000CDE925800848CDE92357FFF723F828B0A9
:10435000BDE8F081303802400044004000000240D7
:10436000000C024000140140000802402DE9F84F03
:104370000446D0F880009A4616460D46202802D002
:104380000220BDE8F88FC5B1BEB10027C4F8847023
:104390002220C4F8800027661C34FFF725F98146E7
:1043A00054F8140CA6874FF48053E687FF211C3C79
:1043B000984207D1226912B117E00120E1E740F2EB
:1043C000FF1112E04FF07F0268B1B0F1805F0FD0B3
:1043D000A4F85C709842B4F85C7001D1206970B1A7
:1043E0002E4600250CE0266936B9A4F85C10F1E7EA
:1043F000216909B13F21F8E7A4F85C20EAE700262B
:1044000007F0FF08B4F85A00E0B100224B46202123
:104410002046CDF800A000F0B9FD08B10320B0E7B8
:104420002068406A56B100EA080006F8010B00BF98
:10443000B4F85A00401EA4F85A00E3E7384025F8C3
:10444000020BF5E72020C4F88000002099E72DE951
:10445000F8430446C06F1F4616460D46202802D07A
:104460000220BDE8F8838DB186B10020C4F8840035
:104470002121E167FFF7B8F88046A068A4F85060F2
:10448000A4F85260B0F5805F02D003E00120E8E7B5
:10449000206910B12E46002510E000260EE0802194
:1044A000204600F073FDB8B9C6B116F8010B2168BB
:1044B0008862B4F85200401EA4F85200B4F85200CA
:1044C00043464FF0000200970028E8D14FF040012A
:1044D000204600F05BFD38B10320C2E735F8020B3F
:1044E0002168C0F30800E3E72020E0670020B8E778
:1044F000FEE70000094942180021B2F5703F0AD3D7
:10450000074A904202D3074A904204D9A0F10060C2
:10451000B0F5801F00D20121084670470000FFDF80
:1045200000C00420FF3F01200A480021084B01225F
:1045300010B5036001714171416102628161FEF752
:1045400067FD002803D0BDE81040FEF719BC10BD80
:1045500000300240200000202DE9F04F87B01421E8
:104560006846FCF742F85B48016841F004010160CD
:10457000016801F004010591016841F080010160CA
:10458000016801F080010591016841F001010160BD
:10459000016801F001010591016841F0020101602B
:1045A000016801F002010591016841F00801016014
:1045B000016801F008010591016841F040010160C6
:1045C000006844F2810ADFF810B1002200F04000D8
:1045D000514605905846FFF701F840480022402117
:1045E000FEF7FCFF0024DFF8F8904FF40058CDF8F8
:1045F00000804FF488114846CDE901146946FEF762
:10460000C9FE02256946322002AACDE9000503262B
:1046100048460B2782E8D000FEF7BCFE862069469C
:1046200002AACDE900052F4882E8D000FEF7B2FECD
:104630004FF00109CDF800A0CDE901946946584634
:104640000394FEF7A7FE02AA6946584682E8D00006
:10465000CDE90085FEF79EFE30020294CDE900050B
:1046600007206946CDE903601F48FEF793FE40210D
:104670000091CDE90194194869460394FEF78AFE3A
:1046800080206946CDE9000414480294FEF782FEBA
:104690004FF4E85000900A206946CDE903601148C4
:1046A000CDE90154FEF776FE28026946CDE9000403
:1046B0000C480294FEF76EFE4FF42050694602AAA1
:1046C000CDE90005054882E8D000FEF763FE07B09B
:1046D000BDE8F08F3038024000040240001802406C
:1046E0000008024000000240000C02400D4800217A
:1046F00010B50B4C0C224FF4E1330460C0E90131DA
:10470000C160C0E904128161C16101624162FFF7C9
:1047100076FD002803D0BDE81040FEF731BB10BD88
:1047200000440040440000200D48002110B50B4C0F
:104730000C224FF4E1330460C0E90131C160C0E9EB
:1047400004128161C16101624162FFF758FD0028D6
:1047500003D0BDE81040FEF713BB10BD00140140AC
:10476000CC000020FEE7FEE770470000F0B585B002
:104770000C460027054608293E46009725D8072DF8
:1047800002D9FF2818D020E011A0FEF711FAC5F1D8
:104790000800C0B2844200D904460197CDE9025412
:1047A00002200490FEF7DEFD01A86946FEF780FCBA
:1047B0000098401C06D006E0012001900DA0FEF7F5
:1047C000F7F9EDE70126FEF757FD05B03046F0BDDD
:1047D000466C61736820536563746F722045726123
:1047E00073652041637469766174696F6E200D0A88
:1047F00000000000466C617368204D6173732045B2
:10480000726173652041637469766174696F6E20AB
:104810000D0A00007047000030B50024054689B03D
:10482000FEF74AFD18B112A0FEF7C2F91DE01AA06A
:10483000FEF7BEF90220039500906846FEF7A6FC3D
:1048400028B11FA0FEF7B4F9FEF72CFD0DE024A05F
:10485000FEF7AEF9FEF71AFD38B9FEF723FD20B9D1
:104860000124294626A0FEF7A3F909B0204630BD51
:104870004661696C656420546F20756E6C6F636B64
:1048800020466C617368204F5020526567697374CD
:104890006572200D0A000000506173736564205436
:1048A0006F20756E6C6F636B20466C617368204F70
:1048B00050205265676973746572200D0A0000000C
:1048C0004661696C65642070726F6772616D206FFC
:1048D0007074696F6E206279746573200D0A000030
:1048E0007061737365642070726F6772616D206FA1
:1048F0007074696F6E206279746573200D0A000010
:1049000070726F6772616D20524F5020746F206C0F
:104910006576656C203A2030782558200D0A000015
:1049200000B589B06846FEF709FC012000214FF46C
:104930007F028DE80700FEF7BFFC08B110A007E07A
:1049400015A0FEF735F96846FEF720FC18B11CA04B
:10495000FEF72EF90CE022A0FEF72AF9FEF796FCEE
:1049600030B9FEF79FFC18B9002125A0FEF720F909
:104970006846FEF7E3FB019809B0C0B200BD000035
:104980004661696C656420546F20756E6C6F636B53
:1049900020466C6173680000506173736564205435
:1049A0006F20756E6C6F636B20466C617368204F6F
:1049B00050205265676973746572200D0A0000000B
:1049C0004661696C65642070726F6772616D206FFB
:1049D0007074696F6E206279746573200D0A00002F
:1049E0007061737365642070726F6772616D206FA0
:1049F0007074696F6E206279746573200D0A00000F
:104A000057726974652050726F74656374696F6E54
:104A10002044697361626C652041637469766174D6
:104A2000696F6E203A2030782558200D0A0000006A
:104A3000F0B589B00F46012406466846FEF77EFBB6
:104A400001200090082E019005D919A0FEF7B0F8BA
:104A5000204609B0F0BDFEF72FFC050001D01EA0D6
:104A600010E023A0FEF7A4F8002407E0385D0290D0
:104A70006846FEF78BFB641C0546E4B2B442F5D3EE
:104A80001DB125A0FEF794F80CE02BA0FEF790F8DE
:104A9000FEF7FCFB30B9FEF705FC18B900212EA08B
:104AA000FEF786F86846FEF749FB0198C0B2D0E7EA
:104AB000796F752073686F756C6420656E746572AC
:104AC0002076616C6964204E756D62657220736535
:104AD00063746F72730000004661696C65642054F2
:104AE0006F20756E6C6F636B20466C61736800009D
:104AF00050617373656420546F20756E6C6F636BC7
:104B000020466C617368204F50205265676973744A
:104B10006572200D0A0000004661696C65642070B2
:104B2000726F6772616D206F7074696F6E20627949
:104B3000746573200D0A00007061737365642070E2
:104B4000726F6772616D206F7074696F6E20627929
:104B5000746573200D0A00005772697465205072E5
:104B60006F74656374696F6E20456E61626C652059
:104B700041637469766174696F6E203A20307825DC
:104B800058200D0A0000000000B589B06846FEF705
:104B9000D5FA039809B0C0B200BD7047FEF72ABD30
:104BA00070B592B030216846FBF71FFD14210CA8A8
:104BB000FBF71BFD2048016841F08051016000684F
:104BC00000F0805011901D48016841F4404101609F
:104BD00000680224D82500F44040119001200926E5
:104BE000820501040423CDE90642CDE90001CDE9A7
:104BF0000835CDE90A466846FFF72CF908B172B6C8
:104C0000FEE7FEF78BFD08B172B6FEE70EAD0021A0
:104C10004FF4A0524FF4805385E80E000F20CDE9E9
:104C20000C0407210CA8FFF72DF8002801D072B65C
:104C3000FEE712B070BD0000403802400070004036
:104C40000248016841F470010160704788ED00E09E
:104C500090F82410C90706D00168836A4A6822F4D4
:104C600000321A434A6090F82410890706D501687B
:104C7000C36A4A6822F480321A434A6090F82410CA
:104C8000490706D50168036B4A6822F480221A435B
:104C90004A6090F82410090706D50168436B4A68FA
:104CA00022F400421A434A6090F82410C90606D53F
:104CB0000168836B8A6822F480521A438A6090F8F4
:104CC0002410890606D50168C36B8A6822F4005255
:104CD0001A438A6090F82410490611D50168036CC4
:104CE0004A6822F480121A434A60016CB1F5801FB1
:104CF00006D10168436C4A6822F4C0021A434A6034
:104D000090F82410090606D50168826C486820F4E2
:104D1000002010434860704738B500250446C0F8AD
:104D20008450FEF761FC03462068006800070BD53D
:104D30006FF07E400090002220464FF4001100F0FA
:104D400025F908B1032038BD2020E067C4F88000B1
:104D500025666566002084F8785038BD2DE9F0415D
:104D600004460368C2698168D4E90450DFF8F0C1E1
:104D70007C4E29431F68002510437B4A014307EA04
:104D80000C070F431F604FF400402168E7684B6831
:104D900023F440533B434B602768A369216AD7F84B
:104DA00008C019432CF430630B43BB602168B14247
:104DB0000AD1116811F0030152D001297CD00229D7
:104DC00071D003296ED184E0684B99420AD11168F1
:104DD00011F00C0167D0042965D0082975D00C2981
:104DE00060D176E0624B99420AD1116811F030012E
:104DF00059D010296BD0202967D0302952D168E0D2
:104E00005C4B99420AD1116811F0C0014BD0402986
:104E10005DD0802959D0C02944D15AE0564B9942DF
:104E20000DD1116811F440713DD0B1F5807F4ED0A5
:104E3000B1F5007F49D0B1F5407F33D149E04F4B08
:104E400099420FD1116811F4406109D0B1F5806F1A
:104E50003DD0B1F5006F38D0B1F5406F22D138E0C8
:104E6000012120E0464B99420DD1116811F44051C7
:104E700019D0B1F5805F2AD0B1F5005F25D0B1F52A
:104E8000405F0FD125E03F4B99420BD1116811F4DF
:104E9000404108D0B1F5804F19D0814215D0B1F50D
:104EA000404F16D01021E369374A4FF6EF76834220
:104EB0002ED1092949D201E009E006E0DFE801F03E
:104EC0000B0E11451345454516000221EBE7042161
:104ED000E9E70821E7E7FEF76DFF06E0FEF77AFF56
:104EE00003E0104602E0FEF785FF78B361684000FA
:104EF00000EB5100B0FBF1F0A0F11001B14224D859
:104F00004FF6F0732168C0F342021840104320E0CE
:104F100009291AD2DFE801F005080B190D19191932
:104F20001000FEF747FF06E0FEF754FF03E01046CF
:104F300002E0FEF75FFF48B1616800EB5100B0FB93
:104F4000F1F0A0F11001B14201D9012502E0216880
:104F500080B2C8600020A066E0662846BDE8F08107
:104F6000F369FFEF00100140903802400044004018
:104F700000480040004C0040005000400014014038
:104F800000780040007C00400024F4002DE9F04748
:104F90009A4617460E460446089D4FF000094FF00A
:104FA00020084CE0681C4AD0FEF71EFBA0EB0A006C
:104FB000A8422AD84DB32068016849073FD5C06987
:104FC000C04300053BD421684FF4006008622168AB
:104FD00051E8000F20F4D07041E80002002AF6D119
:104FE0002068083050E8001F21F0010140E800125D
:104FF000002AF5D1C4F87C8084F87890C4F88080C9
:10500000C4F884800320BDE8F087206850E8001FC2
:1050100021F4D07140E80012002AF6D1206808304F
:1050200050E8001F21F0010140E80012002AF5D1EC
:10503000C4F87C8084F87890C4F88080E2E7206827
:10504000C06936EA000004D00020B842AAD000208F
:10505000D9E70120F9E7FEE703B401984100009881
:1050600050EAC12018BF04204A0D18BF40F00100CB
:1050700040F2FF72B2EB515F08BF40F0020001281E
:1050800008BF052002B07047090700284FEA1161E8
:1050900004DB00F1E02080F80014704700F00F00FE
:1050A00000F1E02080F8141D704730380A2801D242
:1050B0000120704700207047FEF7A4FAFFF770FD4B
:1050C000FFF74AFAFFF712FBFFF72EFBFFF72CFA68
:1050D00003A0FDF76DFD00BFFDF782FDFCE70000BA
:1050E000426F6F746C6F6164657220537461727487
:1050F0006564200D0A00000010B500290AD0087868
:10510000002807D005487844FCF7A8FB002801D008
:10511000002010BD0248784410BD0000920100003C
:105120008A01000010B500290AD00878002807D0AD
:1051300005487844FCF792FB002801D0002010BD00
:105140000248784410BD0000820100007A0100008E
:105150004FF04070E1EE100A7047FBF73CBFFCF7E0
:1051600071B80000000000000000010203040607FF
:105170000809000000000102030400000000000014
:10518000000000003031323334353637383941428F
:105190004344454640305800303132333435363799
:1051A0003839616263646566403078000400000845
:1051B0000000000000000002000100001030313249
:1051C0003334353637383961626364656678700028
:1051D000303132333435363738394142434445462D
:1051E0005850000002400000000000A00000000035
:1051F00005400000000000C8000000000C40000056
:105200000000409C00000000194000000020BCBECF
:105210000000000034400000BFC91B8E00000004E5
:10522000B5400000504BCFD06607E2CF0100000030
:105230006C4100003E8251AADFEEA734010000005D
:10524000D9420000DCB5A0E23A301F97FFFFFFFF14
:10525000B4450000FD25A0C8E9A3C14FFFFFFFFF33
:10526000FF3F00000000008000000000FF3F000042
:105270000000008000000000C4530008000000206F
:105280002000000004020008E45300082000002071
:1052900078080000200200081C0000004300000005
:1052A000F8FFFFFF0C0000000E0000000F000000E0
:1052B0002E0000001001000043000000F8FFFFFF77
:1052C0000040404040404040404041414141414019
:1052D00040404040404040404040404040404040CE
:1052E000400502020202020202020202020202025D
:1052F0000220202020202020202020020202020262
:1053000002029090909090901010101010101010B9
:1053100010101010101010101010101002020202C5
:105320000202888888888888080808080808080809
:105330000808080808080808080808080202020205
:10534000400000000000000000000000000000001D
:10535000000000000000000000000000000000004D
:10536000000000000000000000000000000000003D
:10537000000000000000000000000000000000002D
:10538000000000000000000000000000000000001D
:10539000000000000000000000000000000000000D
:1053A00000000000000000000000000000000000FD
:1053B00000000000000000000000000000000000ED
:1053C00000000000010000001000000000000000CC
:1053D0000024F40000010211213143445051637351
:0453E0008292A10014
:04000005080001C925
:00000001FF
