:020000040801F1
:10000000100D002069020108C71D0108DF1B01084F
:10001000C51D0108C3040108BF2501080000000038
:10002000000000000000000000000000CB1D0108DF
:10003000C504010800000000C91D0108CD1D01080C
:100040008302010883020108830201088302010878
:100050008302010883020108830201088302010868
:100060008302010883020108830201088302010858
:100070008302010883020108830201088302010848
:100080008302010883020108830201088302010838
:100090008302010883020108830201088302010828
:1000A0008302010883020108830201088302010818
:1000B0008302010883020108830201088302010808
:1000C00083020108830201088302010883020108F8
:1000D00083020108830201088302010883020108E8
:1000E000A9070108830201088302010883020108AD
:1000F00083020108830201088302010883020108C8
:1001000083020108830201088302010883020108B7
:1001100083020108830201088302010883020108A7
:100120008302010883020108830201088302010897
:100130008302010883020108830201088302010887
:100140008302010883020108830201088302010877
:100150008302010883020108830201088302010867
:100160008302010883020108830201088302010857
:100170008302010883020108830201088302010847
:100180008302010883020108830201088302010837
:100190008302010883020108830201088302010827
:1001A0008302010883020108830201088302010817
:1001B0008302010883020108830201088302010807
:1001C000830201088302010800F002F800F03CF805
:1001D0000AA090E8000C82448344AAF10107DA45A2
:1001E00001D100F031F8AFF2090EBAE80F0013F0B8
:1001F000010F18BFFB1A43F0010318474824000001
:1002000068240000103A24BF78C878C1FAD8520791
:1002100024BF30C830C144BF04680C607047000080
:100220000023002400250026103A28BF78C1FBD8FF
:10023000520728BF30C148BF0B6070471FB502F09E
:10024000EFF91FBD10B510BD00F001F91146FFF721
:10025000F5FF02F0C7F900F01FF903B4FFF7F2FF52
:1002600003BC00F027F9000009488047094800470F
:10027000FEE7FEE7FEE7FEE7FEE7FEE7FEE7FEE756
:10028000FEE7FEE704480549054A064B70470000B3
:10029000751E0108C901010810070020100D00207B
:1002A000100900201009002053EA020C00F06980B8
:1002B0002DE9F04B4FF00006002B1FBFB3FA83F57A
:1002C00003FA05F424FA05F65E4012BF1643B2FAAB
:1002D00082F502FA05F4C5F120051EBF22FA05FCDD
:1002E00044EA0C04203556EA044C4FEA144418BF83
:1002F000641C4FF000084FF00009904271EB030CB2
:1003000039D3002919BFB1FA81F701FA07F6B0FA1B
:1003100080F700FA07F6C7F120071EBF20FA07FC96
:1003200046EA0C062037B6FBF4FCA7EB0507103FA6
:1003300007F01F0BCBF120060CFA0BFB2CFA06F68C
:1003400044BFB3460026202FA4BF5E464FF0000BEB
:100350005BEA060C08BF4FF0010B19EB0B09ABFB76
:10036000027C48EB0608C01B06FB02CC0BFB03CC4F
:1003700071EB0C01C1E70B46024641464846BDE819
:10038000F08B13B54FF000004FF00001AFF3008089
:10039000BDE81C40704710B5203AC0F00B80B1E8B2
:1003A0001850203AA0E81850B1E81850A0E81850AA
:1003B000BFF4F5AF5FEA027C24BFB1E81850A0E8B3
:1003C000185044BF18C918C0BDE810405FEA827CCD
:1003D00024BF51F8043B40F8043B08BF7047D207E4
:1003E00028BF31F8023B48BF11F8012B28BF20F885
:1003F000023B48BF00F8012B70474FF0000200B5E8
:10040000134694469646203922BFA0E80C50A0E837
:100410000C50B1F12001BFF4F7AF090728BFA0E8E5
:100420000C5048BF0CC05DF804EB890028BF40F8B1
:10043000042B08BF704748BF20F8022B11F0804FF3
:1004400018BF00F8012B704770477047704775461A
:1004500000F02CF8AE4605006946534620F0070030
:10046000854618B020B5FFF70DFFBDE820404FF0DE
:1004700000064FF000074FF000084FF0000B21F08E
:100480000701AC46ACE8C009ACE8C009ACE8C0095B
:10049000ACE8C0098D46704710B50446AFF3008044
:1004A0002046BDE81040FFF7D8BE00000048704766
:1004B000B006002001491820ABBEFEE7260002006E
:1004C0007047FEE770470000F0B5002344F2F8568D
:1004D0004FF000451A4600BF016902EB820401EBB0
:1004E000C4010B604B608B60CB600B620D604B6294
:1004F0004E60D1F804C0032A00EB82072CF0004CB8
:10050000C1F804C0B96406D207694FF0280C0CEB9F
:10051000C4043C4400E00469CC60521C042ADBD3D0
:10052000C36503668366C36683650168006901F578
:100530008051C860F0BD70B5A4B006460024012506
:100540008DF81050A80302948DF81150C1108DF849
:100550001F408DF804508DF820408DF81E508DF806
:100560000F4009948DF828408DF856408DF81C40B6
:1005700012948DF84C4014948DF85440CDE9050147
:10058000694630468DF8554000F084F828048DF80F
:1005900070508DF881508DF8715081011E94C210F9
:1005A0008DF880408DF888508DF872508DF882401B
:1005B0008DF868501D92239421941F9119A91B90C6
:1005C00030468DF88950199400F002F824B070BDBF
:1005D0002DE9F0410C4601682D4A054601F5805190
:1005E000237B886900EA0200F3B30022667B637F05
:1005F000920642EA4662C3B30023A67B676942EAD9
:100600000352237F42EA4652A67F3A43276A42EAD0
:10061000C31294F8243042EA86123A4342EA830233
:1006200002438A61286800F580508669012000F045
:10063000D9F8286800F5805086612679A169A068FC
:100640002369084394F8252043EA4661A36A0843D6
:10065000246840EAC210296840EA8300204340F43D
:10066000000001F5805101E00EE00FE0086028680D
:1006700000F580500468012000F0B4F8286800F507
:1006800080500460BDE8F0810122AFE70123B4E7A8
:10069000233FDEF82DE9F0410546087C414B0C462E
:1006A000896800282A68106800EA030069D00023DE
:1006B000667C002E41EAC35165D00023E67F94F8A2
:1006C0001EC09B05676943EA06431943BCF1000F4E
:1006D00041EA070159D0002394F81CC02779A66984
:1006E00041EA433141EA0C3194F82030314341EA88
:1006F0008726EBB30021E37B94F8287046EA41217A
:10070000666A41EAC311314341EA071101431160AE
:1007100028680668012000F065F828684FF64177E0
:1007200006602A6894F84C60A36C216D906941EAD8
:10073000034138406EB3002394F85570DE01012F59
:1007400029D0002394F8567046EAC3031943012FB9
:1007500023D0002394F85440012C41EA83011ED099
:100760005FF0000341EA430101439161286800E022
:100770000DE08469012000F035F828688461BDE847
:10078000F081012394E7012398E70123A4E70121E5
:10079000B1E70123D0E70123D4E70123DAE70123FE
:1007A000E0E700000F8120FF1FB508A30FCB8DE805
:1007B0000F000A4810224FF0FF33694601F0BEF9DE
:1007C0004FF4005000F020F91FBD00004558544977
:1007D0002049732052756E6E696E670020010020FB
:1007E00072B6FEE770B5044600F044FA0546601C98
:1007F00002D004480078044400F03CFA401BA042B8
:10080000FAD370BD28000020F8B5040003D0D4F856
:10081000840010B107E00120F8BD2320C4F8840053
:10082000204600F07BF83A48016841F480410160BD
:10083000006800F4804000903648016821F400010F
:1008400001600168A268114301600068206800F53A
:100850008050016841F00101016000F00BFA4FF493
:10086000FA7605460CE000BF00F004FA401BB042E7
:1008700006D90421C4F88810E020C4F88400CAE72F
:10088000206800F580500068C007EDD12046FFF7D2
:1008900052FE00254FEA0501E668032901EB8102BB
:1008A00004EB810306EBC200056045608560C5600E
:1008B0009861036843F48013036005D2E368282637
:1008C00006EBC2021A4400E0E268C2600268491CFA
:1008D000042942F440020260DED3A5622068E16888
:1008E00000F5805001612046FFF7EEFD60680A4A7E
:1008F000818811640178D0F8010041EA0020506439
:100900001020C4F88850C4F884000020F8BD00000E
:10091000443802400438014000800240F0B587B0FE
:10092000044614216846FFF768FD30492068884274
:1009300059D12F48016841F000710160016801F050
:1009400000710591016841F080610160016801F06A
:1009500080610591016841F000610160016801F06A
:1009600000610591016841F004010160016801F036
:1009700004010591016841F001010160016801F085
:1009800001010591016841F002010160016801F077
:1009900002010591016841F04001016000680224F4
:1009A0000025694600F04000059003260B27322001
:1009B0008DE8F1000F4800F033F8862069468DE895
:1009C000F1000D4800F02CF8200369468DE8F10095
:1009D0000A4800F025F84FF4205069468DE8F100F0
:1009E000074800F01DF807B0F0BD0000008002408D
:1009F000303802400008024000000240000402407B
:100A00000018024070470000044910B50A6802420D
:100A100002D00860FFF7F6FF10BD0000143C014053
:100A20002DE9F84FDFF80CB2012403254FF00F0A2F
:100A300000220BF1040E00BF0B6804FA02F63340EB
:100A4000B34278D10F7907F00307012F01D0022FAD
:100A50001AD187684FEA4209D1F80CC005FA09F8A3
:100A600027EA08070CFA09FC4CEA070CC0F808C092
:100A7000476891F804C0B743CCF3001C0CFA02FCA1
:100A80004CEA070CC0F804C00E79F643B6070BD049
:100A9000C6684FEA420C8F6805FA0CF826EA080689
:100AA00007FA0CF73743C7600E7906F00306022EEB
:100AB00012D1D6084FEA427800EB860600960F69FD
:100AC000D6F820904FEAD8660AFA06FCB74029EA21
:100AD0000C063743009E37620F7906684FEA420CD6
:100AE00007F0030705FA0CF807FA0CF726EA0806E0
:100AF000374307604E6816F4403F1CD04E4E3768AF
:100B000047F480473760366822F00308970706F4F9
:100B100080460096494E3F0F4644B146D6F80868D5
:100B2000DFF81C810AFA07FC404526EA0C0603D1CF
:100B30004FF0000C41E076E0DFF808C1604502D1DB
:100B40004FF0010C39E0DFF800C1604502D14FF0F1
:100B5000020C32E0DFF8F4C0604502D14FF0030C24
:100B60002BE0DFF8ECC0604502D14FF0040C24E02C
:100B7000DFF8E0C0604502D14FF0050C1DE0DFF862
:100B8000D8C0604502D14FF0060C16E0DFF8CCC0AB
:100B9000604502D14FF0070C0FE0DFF8C4C060459C
:100BA00002D14FF0080C08E0DFF8B8C0604502D170
:100BB0004FF0090C01E04FF00A0C0CFA07FC4CEA6C
:100BC000060CC9F808C84F68DBF80060FF0226EA87
:100BD000030600D51E437746CBF80060D1F804C069
:100BE000DEF800605FEA8C2C26EA030600D51E437F
:100BF000DFF840C03E60ACF1040C4F68DCF80060E8
:100C0000BF0326EA030600D51E430A4FCCF8006056
:100C1000083FD1F804C03E685FEACC3C26EA0306F0
:100C200000D51E433E60521C102AFFF405AFBDE8FC
:100C3000F88F0000083C0140443802400030014079
:100C4000000002400004024000080240000C024084
:100C5000001002400014024000180240001C024034
:100C600000200240002402400AB18161704709045B
:100C7000FBE7000001488068704700002800002062
:100C80000248816802781144816070472800002082
:100C9000032010B500F06EF8002000F005F800F019
:100CA00023F8002010BD000070B50D4D04464FF430
:100CB0007A700C4A29781268B0FBF1F0B2FBF0F0C0
:100CC00000F0B2FE48B9102C07D200222146501E77
:100CD00000F030F800206C6070BD012070BD000095
:100CE00028000020340000200A4808B5016841F0BF
:100CF00080510160006800F0805000900548001DA0
:100D0000016841F480410160006800F48040009077
:100D100008BD000040380240002809DB410900F00E
:100D20001F028900012001F1E0219040C1F800017B
:100D3000704700000E4BF0B41B680D46C3F302234E
:100D4000C3F10706042E00D90426191D072901D274
:100D5000002300E0DB1E012404FA06F19C40491E3A
:100D60002940641E994014402143F0BC01F028BC86
:100D70000CED00E0064900F0070210B54FF6FF0445
:100D80000868044B204040EA02201843086010BD68
:100D90000CED00E00000FA0501680123C0F8003501
:100DA000002280F8F4248869044A40F000608861D9
:100DB000486D104348650020704700000300001094
:100DC0002DE9F04104008AB005D094F8BD04002557
:100DD000266820B108E001200AB0BDE8F081204675
:100DE00084F8BC5400F066F8032084F8BD04F06B6E
:100DF000C00500D42561206801F06EFB04F11001EC
:100E0000684628228846FFF7C6FA94E80F0001F0EA
:100E100043FA0227D8BB2068002101F0A1FB002083
:100E2000012610E000EBC001421C04EB810181F8B7
:100E30003D6081F840508D64CD644D6581F83C0083
:100E4000A1F84400D0B261688142EBD8002011E0E3
:100E500000EBC001421C04EB810181F87D5281F856
:100E60008052C1F88852C1F88C52C1F8945281F86E
:100E70007C02D0B261688142EAD8282241466846A5
:100E8000FFF789FA94E80F0001F06AFA10B184F8CC
:100E9000BD74A0E7606A84F8385084F8BD64012806
:100EA00002D12046FFF778FF206801F04BFA0020BE
:100EB00092E7000030B5A7B00446142121A8FFF73F
:100EC0009CFA84216846FFF798FA2068B0F1A04F99
:100ED0003ED14FF400100090002468461F9400F0AB
:100EE0007BF808B1FFF77CFC1A48016841F001016A
:100EF0000160006821AD022100F0010026904FF44E
:100F0000E85085E813000A23134D032221A928463F
:100F1000CDE92423FFF784FD6815CDE9210421A93B
:100F200028462394FFF77CFD0A48001D016841F024
:100F300080010160006800F08000269005481430B0
:100F4000016841F480410160006800F4804026900F
:100F500027B030BD30380240000002401848F8B5D4
:100F6000016841F0805101600068164C00F080502B
:100F70000090206840F480302060FFF77BFE4FF443
:100F80007A76054605E000BFFFF774FE401BB042CD
:100F90000FD86068C003F7D5206840F400302060A7
:100FA000FFF768FE054606E0FFF764FE401BB0420F
:100FB00001D90320F8BD60688003F5D50020F8BD95
:100FC00040380240007000400248016841F48071DE
:100FD00001607047007000402DE9F84F044600782A
:100FE000DFF824944FF000063746C0070ED0D9F83A
:100FF000001021F40001C9F80010D9F80010626B4C
:101000001143C9F80010606B00B90126FE4D20683D
:10101000843500030ED5E16B286820F440100843A6
:101020002860E06BB0F5801F01D010B102E001260E
:1010300000E0012720684FF4800BC0020CD5216C22
:10104000286820F4400008432860206C584501D1EE
:10105000012601E000B901272068C10100D5012661
:10106000800666D5E8483830016841F0805101605B
:101070000068DFF898A300F080500090DAF80010C4
:1010800041F48071CAF80010FFF7F4FD804605E0D6
:10109000FFF7F0FDA0EB080064287DD8DAF8000027
:1010A000C005F5D5DFF8608308F16808D8F80000BE
:1010B00010F440702AD0218E01F44071814225D075
:1010C000D8F80010D8F8002021F4407142F48032A2
:1010D000C8F80020D8F8002022F48032C8F8002098
:1010E000C8F80010D8F80000C0070FD0FFF7C2FD05
:1010F000824607E0FFF7BEFDA0EB0A0141F288300F
:101100008142CAD8D8F800008007F3D5206BC0F31D
:10111000012103297ED0D9F8001021F4F811C9F873
:101120000010228ED8F80010C2F30B021143C8F849
:1011300000102078C00607D5286820F0807028604D
:101140002868A16B084328602188AF48883049048B
:1011500005D5626E016821F4403111430160218898
:10116000090405D5A26E016821F4402111430160F4
:101170002168C90305D5E26E016821F440111143CD
:1011800001602168890305D5226F016821F44001BF
:1011900011430160217800E016E1490605D5626C33
:1011A000016821F00301114301602178090605D58A
:1011B000A26C016821F00C01114301602188C9056E
:1011C00005D5E26C016821F03001114301602188EE
:1011D000890505D5226D016821F0C0011143016028
:1011E0002188490505D5626D016821F440711143DC
:1011F00001602188090505D5A26D016821F44061CF
:10120000114301602188C90407D5E26D016821F40A
:10121000405100E04AE0114301602188890405D56E
:10122000226E016821F440411143016021684902A6
:1012300005D5A26F016821F080611143016021682A
:101240004FF0006A890209D5E26F016821F0006160
:1012500011430160E16F514500D1012721680A0760
:1012600000D50127490305D5626F016821F040715F
:10127000114301602168090206D5D4F88020016875
:1012800021F0805111430160DFF88491012E02D0DA
:10129000206880017ED5D9F800004E4620F080609D
:1012A000C9F80000FFF7E6FC80460FE0594AD9F87C
:1012B0000030104023F4F8120243C9F8002030E750
:1012C000FFF7D8FCA0EB080064287DD83068000147
:1012D000F6D421784C487C30C90712D0616B81B9B3
:1012E000237A62680168D0F800C09201C1F301411D
:1012F00042EA0142CCF3036142EA016141EA03712F
:10130000016021680A0303D5E26BB2F5801F04D0A7
:10131000C9021AD5216C594517D16368016894F840
:101320000CC002689B01C1F3014143EA0141C2F3D1
:10133000027241EA0C6141EA027101602968626A45
:1013400021F01F01521E114329602168C90110D5E7
:10135000238A62680168D0F800C09201C1F303617A
:1013600042EA034242EA0162CCF3027142EA0171AD
:101370000160216889010CD56168228A237B94F879
:1013800008C0890141EA024141EA036141EA0C7166
:10139000016000E011E03168B04641F080613160E9
:1013A000FFF768FC064604E0FFF764FC801B642836
:1013B0000AD8D8F800000001F6D56FB3D9F80000BC
:1013C0004E4620F0805000E07BE0C9F80000FFF7B7
:1013D00051FC074605E000BFFFF74CFCC01B64282A
:1013E0006FD83068C0438000F6D507482168803048
:1013F0000A0301D5E26B1AB1C90225D5216C19BBCC
:1014000063690168277E08E00838024000700040E8
:1014100000380240FFFCFF0F5AE00268C1F30141AF
:101420009B0143EA0143C2F3027143EA076242EAC5
:101430000171016029686FF0FF03A26A21F4F8517D
:1014400003EB0222114329602168890212D5E16F62
:1014500051450FD1238C6269016807689201C1F37D
:10146000036142EA034242EA0162C7F3027142EABF
:10147000017101602178090716D561690268D0F809
:1014800000C08B01277FC2F30362CCF3014143EA22
:10149000014141EA026141EA077101602868E16A9D
:1014A00020F4403008432860306840F080503060BD
:1014B000FFF7E0FB044607E0FFF7DCFB001B6428B6
:1014C00002D90320BDE8F88F3068C0438000F3D410
:1014D0000020F7E72DE9F04705000F4663D0444EA2
:1014E000306800F00F00B84209D2306820F00F00D9
:1014F00038433060306800F00F00B84253D128689C
:101500003C4C810712D5400703D5206840F4E050D9
:1015100020602878000703D5206840F460402060F0
:10152000A968206820F0F000084320602878C007F0
:101530002AD0304968680839012810D00968022883
:1015400010D0890700292EDA216821F00301014318
:101550002160FFF78FFB804641F288390DE0096872
:101560008903EFE78901EDE7FFF784FBA0EB0801B2
:10157000494502D90320BDE8F0876868216801F079
:101580000C01B1EB800FEFD1306800F00F00B842D2
:101590000BD9306820F00F0038433060306800F01D
:1015A0000F00B84201D00120E5E72878400705D5B3
:1015B000E968206820F4E05008432060287800079C
:1015C00006D52869216821F4604141EAC000206005
:1015D00000F038F82168084AC1F30311515CC84093
:1015E0000649086006480068FFF75EFB0020C2E776
:1015F000003C0240083802402A260108340000203E
:101600002C0000200449054809680068044AC1F319
:101610008221515CC84070470838024034000020E5
:101620003A2601080449054809680068044AC1F3DC
:101630004231515CC84070470838024034000020F5
:101640003A260108154910B51548096811F00C0231
:1016500013D04110042A0FD0082A0ED10F4C241F9A
:101660002268236802F03F025B0207D52068C0F3BE
:101670008810A0FB010106E0084610BD2168C1F3F7
:101680008811A1FB00010023FEF70EFE2168C1F3C3
:101690000141491C4900B0FBF1F010BD083802407F
:1016A0000024F4002DE9F84F04004FF000076ED03D
:1016B0002078DFF868A3AAF10408C007A8F10405A0
:1016C0004CD0DAF800105046C1F38101012908D04E
:1016D0000068C0F3810002280AD1D8F80000400257
:1016E00006D52868800339D560680028DFD035E04A
:1016F0006068B0F5803F0BD010B1B0F5A02F11D0CD
:10170000286820F480302860286820F4802002E0D7
:10171000286840F480302860606890B1FFF7AAFA2A
:1017200006460AE0286840F480202860F0E700BF01
:10173000FFF7A0FA801B642872D828688003F7D5C9
:101740000CE0FFF797FA064605E000BFFFF792FAB4
:10175000801B6428F0D828688003F7D4207880079D
:1017600042D5DAF80010504611F00C0F08D000688E
:10177000C0F3810002280BD1D8F80000400207D442
:101780002868800718D5E068012800D114E041E1FD
:10179000E0680028286817D040F001002860FFF7B3
:1017A00069FA064605E000BFFFF764FA801B0228CD
:1017B000C2D828688007F7D52069296821F0F80188
:1017C00041EAC00028600FE020F001002860FFF728
:1017D00051FA064605E000BFFFF74CFA801B0228CD
:1017E0001ED828688007F7D42078000729D58B48B1
:1017F00061696C3000298146016812D041F0010115
:101800000160FFF737FA064605E000BFFFF732FA3E
:10181000801B022804D8D9F800008007F6D510E014
:1018200089E021F001010160FFF724FA064604E097
:10183000FFF720FA801B02287DD8D9F80000800726
:10184000F6D4207840076BD5DFF8D09109F138093C
:10185000D9F80000C0000BD4D9F8001041F0805135
:10186000C9F80010D9F80000012700F0805000905E
:101870006B480168C90512D40168834641F4807140
:101880000160FFF7F7F9064605E000BFFFF7F2F940
:10189000801B64284FD8DBF80000C005F6D55F4EEA
:1018A000A068683601280AD008B1052811D0306830
:1018B00020F001003060306820F0040002E0306861
:1018C00040F001003060A068A0B1FFF7D3F9834673
:1018D0000CE0306840F004003060F0E7FFF7CAF930
:1018E000A0EB0B0141F28830814266D83068800756
:1018F000F4D50EE0FFF7BEF9834607E0FFF7BAF92B
:10190000A0EB0B0141F28830814256D83068800745
:10191000F4D42FB1D9F8001021F08051C9F800108B
:10192000A069C8B3DAF80010C1F3810102294BD0D5
:101930000228286800E040E020F08070286003D092
:10194000FFF798F904463BE0FFF794F9064604E0F8
:10195000FFF790F9801B02282FD828688001F7D460
:10196000D4E90962D4E907012E4B570894F82C20DA
:10197000084303EB074343EA8611084340EA026049
:1019800040F00050C8F80000286840F080702860DF
:10199000FFF770F9044606E03EE000BFFFF76AF982
:1019A000001B022809D828688001F7D534E000BF61
:1019B000FFF760F9001B022802D90320BDE8F88F69
:1019C00028688001F4D427E00128D8F8000021D04D
:1019D000E16900F480028A421CD1216A00F03F02D2
:1019E0008A4217D1626A47F6C0710140B1EB821F8B
:1019F00010D1A16A4FF0FF3200F4403302EB5101E5
:101A0000B3EB014F06D194F82C1000F07060B0EBEE
:101A1000016F01D00120D1E70020CFE70838024054
:101A2000007000400000FFFF401EB0F1807F10B545
:101A300001D3012010BD4FF0E02460610F21601739
:101A400000F0BEFD0020A0610721216110BD10B58E
:101A5000040002D0E06F10B107E0012010BD0020AB
:101A600084F87800204600F025F82420E0672068FC
:101A7000016821F001010160204600F08FFA012881
:101A8000ECD0606A10B1204600F002FA206841688C
:101A900021F4904141602068816821F02A01816031
:101AA0002068016841F0010101602046BDE8104056
:101AB00000F052BA10B5A8B00446142121A8FEF7D0
:101AC0009CFC84216846FEF798FC194920688842EE
:101AD0002BD180150090002468461394FFF77CFA00
:101AE00008B1FEF77DFE1348016841F480210160D2
:101AF000006800F4802026900E481038016841F0FC
:101B00000801016000680DF1840C022100F008005A
:101B100026904FF4407007238CE8130003220648F8
:101B2000CDE9242321A9FEF77BFF28B010BD0000DA
:101B30000048004040380240000C02402DE9F843C4
:101B40000446C06F1F4616460D46202802D00220CC
:101B5000BDE8F8838DB186B10020C4F8840021214E
:101B6000E167FFF787F88046A068A4F85060A4F802
:101B70005260B0F5805F02D003E00120E8E7206901
:101B800010B12E46002510E000260EE080212046F0
:101B900000F01CFBB8B9C6B116F8010B21688862C9
:101BA000B4F85200401EA4F85200B4F85200434664
:101BB0004FF0000200970028E8D14FF04001204686
:101BC00000F004FB38B10320C2E735F8020B2168AE
:101BD000C0F30800E3E72020E0670020B8E7FEE755
:101BE00016498023164870B5134A00240A60E1257F
:101BF00004701E04437040F2F4528570C470047186
:101C00004471C1E901060F48C8600F48C1E90402E8
:101C10000846FEF7F9FD08B1FEF7E2FD0748382156
:101C20003838FEF7EAFB054821224FF440013838E6
:101C30000260C0E9044170BD0080024070000020D5
:101C40001F000020A0C0042000C004202DE9F041A6
:101C500086B014216846FEF7D0FB3848016841F091
:101C600004010160016801F004010591016841F07F
:101C700080010160016801F080010591016841F077
:101C800001010160016801F001010591016841F065
:101C900002010160016801F002010591016841F053
:101CA00008010160016801F008010591016841F037
:101CB00040010160006844F28106214F002200F0DB
:101CC0004000314605903846FEF7CEFFDFF87480BD
:101CD000002240214046FEF7C7FF00244FF4005089
:101CE0004FF488118DE8130017486946FEF798FEF7
:101CF00001250096CDE90154694638460394FEF764
:101D00008FFE40200090CDE901546946404603947F
:101D1000FEF786FE80206946CDE900044046029425
:101D2000FEF77EFE002228201146FFF703F8282048
:101D3000FEF7F2FF06B0BDE8F08100003038024047
:101D40000004024000180240000802400D48002133
:101D500010B50B4C0C224FF4E1330460C0E90131A3
:101D6000C160C0E904128161C16101624162FFF793
:101D70006EFE002803D0BDE81040FEF731BD10BD57
:101D800000480040200100200D48002170B50222CB
:101D9000C0E90321012382610624C0E907314162C1
:101DA0004FF0A045C0E90B31C0E90054FFF708F837
:101DB000002803D0BDE87040FEF712BD70BD0000E2
:101DC000A8010020FEE7FEE770477047FEF758BF06
:101DD00070B592B030216846FEF70FFB14210CA8B5
:101DE000FEF70BFBFFF7F0F82048016841F0805147
:101DF0000160006800F0805011901D48016841F4B6
:101E00004041016000684FF4A021022400F44040EA
:101E100011900120D825820509260423CDE9064228
:101E2000CDE90001CDE90835CDE90A466846FFF75E
:101E300039FC08B172B6FEE7FFF790F808B172B648
:101E4000FEE70EAD00214FF4A0524FF4805385E819
:101E50000E000F20CDE90C0407210CA8FFF73AFB78
:101E6000002801D072B6FEE712B070BD40380240C3
:101E70000070004005484FF000610368034A43F4D6
:101E800070030360803A11607047000088ED00E045
:101E900090F82410C90706D00168836A4A6822F4C2
:101EA00000321A434A6090F82410890706D5016869
:101EB000C36A4A6822F480321A434A6090F82410B8
:101EC000490706D50168036B4A6822F480221A4349
:101ED0004A6090F82410090706D50168436B4A68E8
:101EE00022F400421A434A6090F82410C90606D52D
:101EF0000168836B8A6822F480521A438A6090F8E2
:101F00002410890606D50168C36B8A6822F4005242
:101F10001A438A6090F82410490611D50168036CB1
:101F20004A6822F480121A434A60016CB1F5801F9E
:101F300006D10168436C4A6822F4C0021A434A6021
:101F400090F82410090606D50168826C486820F4D0
:101F5000002010434860704738B500250446C0F89B
:101F60008450FEF787FE03462068006800070BD503
:101F70006FF07E400090002220464FF4001100F0E8
:101F800025F908B1032038BD2020E067C4F880009F
:101F900025666566002084F8785038BD2DE9F0414B
:101FA00004460368C2698168D4E90450DFF8F0C1CF
:101FB0007C4E29431F68002510437B4A014307EAF2
:101FC0000C070F431F604FF400402168E7684B681F
:101FD00023F440533B434B602768A369216AD7F839
:101FE00008C019432CF430630B43BB602168B14235
:101FF0000AD1116811F0030152D001297CD00229C5
:1020000071D003296ED184E0684B99420AD11168DE
:1020100011F00C0167D0042965D0082975D00C296E
:1020200060D176E0624B99420AD1116811F030011B
:1020300059D010296BD0202967D0302952D168E0BF
:102040005C4B99420AD1116811F0C0014BD0402974
:102050005DD0802959D0C02944D15AE0564B9942CD
:102060000DD1116811F440713DD0B1F5807F4ED093
:10207000B1F5007F49D0B1F5407F33D149E04F4BF6
:1020800099420FD1116811F4406109D0B1F5806F08
:102090003DD0B1F5006F38D0B1F5406F22D138E0B6
:1020A000012120E0464B99420DD1116811F44051B5
:1020B00019D0B1F5805F2AD0B1F5005F25D0B1F518
:1020C000405F0FD125E03F4B99420BD1116811F4CD
:1020D000404108D0B1F5804F19D0814215D0B1F5FB
:1020E000404F16D01021E369374A4FF6EF7683420E
:1020F0002ED1092949D201E009E006E0DFE801F02C
:102100000B0E11451345454516000221EBE704214E
:10211000E9E70821E7E7FFF775FA06E0FFF782FA3B
:1021200003E0104602E0FFF78DFA78B361684000E3
:1021300000EB5100B0FBF1F0A0F11001B14224D846
:102140004FF6F0732168C0F342021840104320E0BC
:1021500009291AD2DFE801F005080B190D19191920
:102160001000FFF74FFA06E0FFF75CFA03E01046B5
:1021700002E0FFF767FA48B1616800EB5100B0FB7D
:10218000F1F0A0F11001B14201D9012502E021686E
:1021900080B2C8600020A066E0662846BDE8F081F5
:1021A000F369FFEF00100140903802400044004006
:1021B00000480040004C0040005000400014014026
:1021C00000780040007C00400024F4002DE9F04736
:1021D0009A4617460E460446089D4FF000094FF0F8
:1021E00020084CE0681C4AD0FEF744FDA0EB0A0032
:1021F000A8422AD84DB32068016849073FD5C06975
:10220000C04300053BD421684FF400600862216898
:1022100051E8000F20F4D07041E80002002AF6D106
:102220002068083050E8001F21F0010140E800124A
:10223000002AF5D1C4F87C8084F87890C4F88080B6
:10224000C4F884800320BDE8F087206850E8001FB0
:1022500021F4D07140E80012002AF6D1206808303D
:1022600050E8001F21F0010140E80012002AF5D1DA
:10227000C4F87C8084F87890C4F88080E2E7206815
:10228000C06936EA000004D00020B842AAD000207D
:10229000D9E70120F9E7000070B504460698049DCF
:1022A0000D99012815D0E06840F04000E06020461C
:1022B00000F028F8A16B41F48031A163012D07D112
:1022C000A16841F00601A160A16841F02001A16070
:1022D00070BDA06B01290A4A20F48030A063E06839
:1022E00000EA0200E060E06820F44010E06003D102
:1022F000E06840F48010E060204600F003F8DDE77D
:10230000BFFFBDFF08B50E4900220092009B5B1C79
:1023100000938B420CD80369002BF7DA0092026914
:1023200042F001020261009A521C00928A4201D9D5
:10233000032008BD0269D207F5D1002008BD0000C6
:10234000400D0300D0F8001E21F00301C0F8001E6C
:10235000D0F8041841F00201C0F8041800207047BA
:102360002DE9F04F0E4604460021DDF824B00D465D
:10237000109F0846DDF82C2004EB800CCCF80411EB
:10238000401C0F28F8D32046AFB1806B40F4001CEE
:10239000C4F838C088460846C4F8000ED4F80008CF
:1023A000012A2146C4F800081BD00846D1F80018BD
:1023B00041F003011BE0D0F8040840F0020CC4F81F
:1023C00004C8A06B20F4001CC4F838C0206840F09A
:1023D000400CC4F800C0206840F0800CC4F800C075
:1023E000D8E70846D1F800180BB141F00101C0F858
:1023F0000018102100F094F800B10125204600F0EB
:1024000071F800B1012540464FF000694FF67F3367
:102410004FF0904AC4F81088C4F81488C4F81C8897
:10242000002114E004EB4112D2F800C9BCF1000F06
:1024300006DA11B1C2F800A904E0C4F8009901E07D
:10244000C2F80009C2F81009C2F80839491C8E42C6
:10245000E8D8002115E000BF04EB4112D2F800CB10
:10246000BCF1000F06DA11B1C2F800AB04E0C4F809
:10247000009B01E0C2F8000BC2F8100BC2F8083B49
:10248000491C8E42E8D8D4F81038BBF1000F6FF029
:10249000804223F48073C4F81038A061626103D1D4
:1024A000A06940F01000A061A069094A0C9940EAB7
:1024B0000200A06119B1A06940F00800A061012FDD
:1024C00003D1A06903490843A0612846BDE8F08F05
:1024D00000383C8004000040816821F001018160E7
:1024E0000020704708B50D4900220092009B5B1C3C
:1024F00000938B420AD80369002BF7DA009210236D
:102500000361009A521C00928A4201D9032008BD3F
:102510000269D206F5D4002008BD0000400D03007A
:1025200018B50E4A00230093009C641C009494424A
:102530000CD80469002CF7DA2024009344EA8111B6
:1025400001610099491C0091914201D9032018BDF5
:1025500001698906F5D4002018BD0000400D030074
:1025600070B50446C06801294FF0000520F0C04056
:10257000E06001D079B120E0E06840F00050E06018
:102580000120FEF72FF960696D1C10F0010F10D1CA
:10259000322DF5D30DE0E06840F08040E06001208E
:1025A000FEF720F960696D1C10F0010F01D0322D8B
:1025B000F5D3322D01D0002070BD012070BDFEE7A3
:1025C000090700284FEA116104DB00F1E02080F8E0
:1025D0000014704700F00F0000F1E02080F8141D97
:1025E00070470000FEF754FBFFF7F2FBFFF72EFBEE
:1025F000FFF7F6FAFFF7AAFBFFF7C6FB4FF4FA75F1
:102600004FF0FF3404491F2204482346FFF796FA8F
:102610002846FEF7E7F8F5E700000020200100203B
:102620004FF04070E1EE100A70470000000000001B
:10263000000001020304060708090000000001026F
:102640000304000064260108000000203800000098
:10265000040201089C2601083800002008C104007B
:10266000200201084170706C69636174696F6E20AB
:10267000436F64652069732072756E6E696E6720A2
:102680000D0A000000000000000000000100000032
:0C26900010000000000000000024F40016
:04000005080101C924
:00000001FF
